{
  "contractName": "AlethenaShares",
  "abi": [
    {
      "constant": true,
      "inputs": [],
      "name": "name",
      "outputs": [
        {
          "name": "",
          "type": "string"
        }
      ],
      "payable": false,
      "stateMutability": "view",
      "type": "function"
    },
    {
      "constant": true,
      "inputs": [
        {
          "name": "_lostAddress",
          "type": "address"
        }
      ],
      "name": "getClaimant",
      "outputs": [
        {
          "name": "",
          "type": "address"
        }
      ],
      "payable": false,
      "stateMutability": "view",
      "type": "function"
    },
    {
      "constant": false,
      "inputs": [
        {
          "name": "_lostAddress",
          "type": "address"
        },
        {
          "name": "_nonce",
          "type": "bytes32"
        }
      ],
      "name": "declareLost",
      "outputs": [],
      "payable": true,
      "stateMutability": "payable",
      "type": "function"
    },
    {
      "constant": true,
      "inputs": [
        {
          "name": "_claimerAddress",
          "type": "address"
        }
      ],
      "name": "getMsgHash",
      "outputs": [
        {
          "name": "",
          "type": "bytes32"
        }
      ],
      "payable": false,
      "stateMutability": "view",
      "type": "function"
    },
    {
      "constant": true,
      "inputs": [],
      "name": "decimals",
      "outputs": [
        {
          "name": "",
          "type": "uint8"
        }
      ],
      "payable": false,
      "stateMutability": "view",
      "type": "function"
    },
    {
      "constant": false,
      "inputs": [
        {
          "name": "_lostAddress",
          "type": "address"
        }
      ],
      "name": "deleteClaim",
      "outputs": [],
      "payable": false,
      "stateMutability": "nonpayable",
      "type": "function"
    },
    {
      "constant": true,
      "inputs": [
        {
          "name": "",
          "type": "address"
        }
      ],
      "name": "preClaims",
      "outputs": [
        {
          "name": "msghash",
          "type": "bytes32"
        },
        {
          "name": "timestamp",
          "type": "uint256"
        }
      ],
      "payable": false,
      "stateMutability": "view",
      "type": "function"
    },
    {
      "constant": true,
      "inputs": [],
      "name": "collateralRate",
      "outputs": [
        {
          "name": "",
          "type": "uint256"
        }
      ],
      "payable": false,
      "stateMutability": "view",
      "type": "function"
    },
    {
      "constant": false,
      "inputs": [
        {
          "name": "_hashedpackage",
          "type": "bytes32"
        }
      ],
      "name": "prepareClaim",
      "outputs": [],
      "payable": false,
      "stateMutability": "nonpayable",
      "type": "function"
    },
    {
      "constant": false,
      "inputs": [],
      "name": "clearClaim",
      "outputs": [
        {
          "name": "",
          "type": "uint256"
        }
      ],
      "payable": false,
      "stateMutability": "nonpayable",
      "type": "function"
    },
    {
      "constant": false,
      "inputs": [],
      "name": "renounceOwnership",
      "outputs": [],
      "payable": false,
      "stateMutability": "nonpayable",
      "type": "function"
    },
    {
      "constant": true,
      "inputs": [
        {
          "name": "_claimerAddress",
          "type": "address"
        }
      ],
      "name": "getPreClaimTimeStamp",
      "outputs": [
        {
          "name": "",
          "type": "uint256"
        }
      ],
      "payable": false,
      "stateMutability": "view",
      "type": "function"
    },
    {
      "constant": true,
      "inputs": [],
      "name": "claimPeriod",
      "outputs": [
        {
          "name": "",
          "type": "uint256"
        }
      ],
      "payable": false,
      "stateMutability": "view",
      "type": "function"
    },
    {
      "constant": true,
      "inputs": [],
      "name": "owner",
      "outputs": [
        {
          "name": "",
          "type": "address"
        }
      ],
      "payable": false,
      "stateMutability": "view",
      "type": "function"
    },
    {
      "constant": false,
      "inputs": [
        {
          "name": "_collateralRateInWei",
          "type": "uint256"
        },
        {
          "name": "_claimPeriodInDays",
          "type": "uint256"
        }
      ],
      "name": "setClaimParameters",
      "outputs": [],
      "payable": false,
      "stateMutability": "nonpayable",
      "type": "function"
    },
    {
      "constant": false,
      "inputs": [
        {
          "name": "_lostAddress",
          "type": "address"
        }
      ],
      "name": "resolveClaim",
      "outputs": [
        {
          "name": "",
          "type": "uint256"
        }
      ],
      "payable": false,
      "stateMutability": "nonpayable",
      "type": "function"
    },
    {
      "constant": true,
      "inputs": [],
      "name": "symbol",
      "outputs": [
        {
          "name": "",
          "type": "string"
        }
      ],
      "payable": false,
      "stateMutability": "view",
      "type": "function"
    },
    {
      "constant": true,
      "inputs": [
        {
          "name": "_lostAddress",
          "type": "address"
        }
      ],
      "name": "getCollateral",
      "outputs": [
        {
          "name": "",
          "type": "uint256"
        }
      ],
      "payable": false,
      "stateMutability": "view",
      "type": "function"
    },
    {
      "constant": true,
      "inputs": [],
      "name": "isPaused",
      "outputs": [
        {
          "name": "",
          "type": "bool"
        }
      ],
      "payable": false,
      "stateMutability": "view",
      "type": "function"
    },
    {
      "constant": true,
      "inputs": [
        {
          "name": "",
          "type": "address"
        }
      ],
      "name": "claims",
      "outputs": [
        {
          "name": "claimant",
          "type": "address"
        },
        {
          "name": "collateral",
          "type": "uint256"
        },
        {
          "name": "timestamp",
          "type": "uint256"
        }
      ],
      "payable": false,
      "stateMutability": "view",
      "type": "function"
    },
    {
      "constant": true,
      "inputs": [
        {
          "name": "_lostAddress",
          "type": "address"
        }
      ],
      "name": "getTimeStamp",
      "outputs": [
        {
          "name": "",
          "type": "uint256"
        }
      ],
      "payable": false,
      "stateMutability": "view",
      "type": "function"
    },
    {
      "constant": true,
      "inputs": [],
      "name": "preClaimPeriod",
      "outputs": [
        {
          "name": "",
          "type": "uint256"
        }
      ],
      "payable": false,
      "stateMutability": "view",
      "type": "function"
    },
    {
      "constant": true,
      "inputs": [],
      "name": "master",
      "outputs": [
        {
          "name": "",
          "type": "address"
        }
      ],
      "payable": false,
      "stateMutability": "view",
      "type": "function"
    },
    {
      "constant": false,
      "inputs": [
        {
          "name": "_newOwner",
          "type": "address"
        }
      ],
      "name": "transferOwnership",
      "outputs": [],
      "payable": false,
      "stateMutability": "nonpayable",
      "type": "function"
    },
    {
      "constant": true,
      "inputs": [],
      "name": "termsAndConditions",
      "outputs": [
        {
          "name": "",
          "type": "string"
        }
      ],
      "payable": false,
      "stateMutability": "view",
      "type": "function"
    },
    {
      "anonymous": false,
      "inputs": [
        {
          "indexed": true,
          "name": "shareholder",
          "type": "address"
        },
        {
          "indexed": false,
          "name": "amount",
          "type": "uint256"
        },
        {
          "indexed": false,
          "name": "message",
          "type": "string"
        }
      ],
      "name": "Mint",
      "type": "event"
    },
    {
      "anonymous": false,
      "inputs": [
        {
          "indexed": false,
          "name": "amount",
          "type": "uint256"
        },
        {
          "indexed": false,
          "name": "message",
          "type": "string"
        }
      ],
      "name": "Unmint",
      "type": "event"
    },
    {
      "anonymous": false,
      "inputs": [
        {
          "indexed": false,
          "name": "paused",
          "type": "bool"
        },
        {
          "indexed": false,
          "name": "message",
          "type": "string"
        },
        {
          "indexed": false,
          "name": "newAddress",
          "type": "address"
        },
        {
          "indexed": false,
          "name": "fromBlock",
          "type": "uint256"
        }
      ],
      "name": "Pause",
      "type": "event"
    },
    {
      "anonymous": false,
      "inputs": [
        {
          "indexed": false,
          "name": "approver",
          "type": "address"
        },
        {
          "indexed": false,
          "name": "spender",
          "type": "address"
        },
        {
          "indexed": false,
          "name": "value",
          "type": "uint256"
        }
      ],
      "name": "Approval",
      "type": "event"
    },
    {
      "anonymous": false,
      "inputs": [
        {
          "indexed": true,
          "name": "_lostAddress",
          "type": "address"
        },
        {
          "indexed": true,
          "name": "_claimant",
          "type": "address"
        },
        {
          "indexed": false,
          "name": "_balance",
          "type": "uint256"
        }
      ],
      "name": "ClaimMade",
      "type": "event"
    },
    {
      "anonymous": false,
      "inputs": [
        {
          "indexed": true,
          "name": "_claimer",
          "type": "address"
        }
      ],
      "name": "ClaimPrepared",
      "type": "event"
    },
    {
      "anonymous": false,
      "inputs": [
        {
          "indexed": true,
          "name": "_lostAddress",
          "type": "address"
        },
        {
          "indexed": false,
          "name": "collateral",
          "type": "uint256"
        }
      ],
      "name": "ClaimCleared",
      "type": "event"
    },
    {
      "anonymous": false,
      "inputs": [
        {
          "indexed": true,
          "name": "_lostAddress",
          "type": "address"
        },
        {
          "indexed": true,
          "name": "_claimant",
          "type": "address"
        },
        {
          "indexed": false,
          "name": "collateral",
          "type": "uint256"
        }
      ],
      "name": "ClaimDeleted",
      "type": "event"
    },
    {
      "anonymous": false,
      "inputs": [
        {
          "indexed": true,
          "name": "_lostAddress",
          "type": "address"
        },
        {
          "indexed": true,
          "name": "_claimant",
          "type": "address"
        },
        {
          "indexed": false,
          "name": "collateral",
          "type": "uint256"
        }
      ],
      "name": "ClaimResolved",
      "type": "event"
    },
    {
      "anonymous": false,
      "inputs": [
        {
          "indexed": false,
          "name": "_collateralRate",
          "type": "uint256"
        },
        {
          "indexed": false,
          "name": "_claimPeriodInDays",
          "type": "uint256"
        }
      ],
      "name": "ClaimParametersChanged",
      "type": "event"
    },
    {
      "anonymous": false,
      "inputs": [
        {
          "indexed": true,
          "name": "previousOwner",
          "type": "address"
        }
      ],
      "name": "OwnershipRenounced",
      "type": "event"
    },
    {
      "anonymous": false,
      "inputs": [
        {
          "indexed": true,
          "name": "previousOwner",
          "type": "address"
        },
        {
          "indexed": true,
          "name": "newOwner",
          "type": "address"
        }
      ],
      "name": "OwnershipTransferred",
      "type": "event"
    },
    {
      "anonymous": false,
      "inputs": [
        {
          "indexed": true,
          "name": "from",
          "type": "address"
        },
        {
          "indexed": true,
          "name": "to",
          "type": "address"
        },
        {
          "indexed": false,
          "name": "value",
          "type": "uint256"
        }
      ],
      "name": "Transfer",
      "type": "event"
    },
    {
      "constant": true,
      "inputs": [],
      "name": "totalSupply",
      "outputs": [
        {
          "name": "",
          "type": "uint256"
        }
      ],
      "payable": false,
      "stateMutability": "view",
      "type": "function"
    },
    {
      "constant": true,
      "inputs": [],
      "name": "totalShares",
      "outputs": [
        {
          "name": "",
          "type": "uint256"
        }
      ],
      "payable": false,
      "stateMutability": "view",
      "type": "function"
    },
    {
      "constant": false,
      "inputs": [
        {
          "name": "_newTotalShares",
          "type": "uint256"
        }
      ],
      "name": "setTotalShares",
      "outputs": [],
      "payable": false,
      "stateMutability": "nonpayable",
      "type": "function"
    },
    {
      "constant": false,
      "inputs": [
        {
          "name": "shareholder",
          "type": "address"
        },
        {
          "name": "_amount",
          "type": "uint256"
        },
        {
          "name": "_message",
          "type": "string"
        }
      ],
      "name": "mint",
      "outputs": [],
      "payable": false,
      "stateMutability": "nonpayable",
      "type": "function"
    },
    {
      "constant": false,
      "inputs": [
        {
          "name": "_amount",
          "type": "uint256"
        },
        {
          "name": "_message",
          "type": "string"
        }
      ],
      "name": "unmint",
      "outputs": [],
      "payable": false,
      "stateMutability": "nonpayable",
      "type": "function"
    },
    {
      "constant": false,
      "inputs": [
        {
          "name": "_pause",
          "type": "bool"
        },
        {
          "name": "_message",
          "type": "string"
        },
        {
          "name": "_newAddress",
          "type": "address"
        },
        {
          "name": "_fromBlock",
          "type": "uint256"
        }
      ],
      "name": "pause",
      "outputs": [],
      "payable": false,
      "stateMutability": "nonpayable",
      "type": "function"
    },
    {
      "constant": false,
      "inputs": [
        {
          "name": "_to",
          "type": "address"
        },
        {
          "name": "_value",
          "type": "uint256"
        }
      ],
      "name": "transfer",
      "outputs": [
        {
          "name": "",
          "type": "bool"
        }
      ],
      "payable": false,
      "stateMutability": "nonpayable",
      "type": "function"
    },
    {
      "constant": true,
      "inputs": [
        {
          "name": "_owner",
          "type": "address"
        }
      ],
      "name": "balanceOf",
      "outputs": [
        {
          "name": "",
          "type": "uint256"
        }
      ],
      "payable": false,
      "stateMutability": "view",
      "type": "function"
    },
    {
      "constant": false,
      "inputs": [
        {
          "name": "_from",
          "type": "address"
        },
        {
          "name": "_to",
          "type": "address"
        },
        {
          "name": "_value",
          "type": "uint256"
        }
      ],
      "name": "transferFrom",
      "outputs": [
        {
          "name": "",
          "type": "bool"
        }
      ],
      "payable": false,
      "stateMutability": "nonpayable",
      "type": "function"
    },
    {
      "constant": false,
      "inputs": [
        {
          "name": "_spender",
          "type": "address"
        },
        {
          "name": "_value",
          "type": "uint256"
        }
      ],
      "name": "approve",
      "outputs": [
        {
          "name": "",
          "type": "bool"
        }
      ],
      "payable": false,
      "stateMutability": "nonpayable",
      "type": "function"
    },
    {
      "constant": true,
      "inputs": [
        {
          "name": "_owner",
          "type": "address"
        },
        {
          "name": "_spender",
          "type": "address"
        }
      ],
      "name": "allowance",
      "outputs": [
        {
          "name": "",
          "type": "uint256"
        }
      ],
      "payable": false,
      "stateMutability": "view",
      "type": "function"
    },
    {
      "constant": false,
      "inputs": [
        {
          "name": "_spender",
          "type": "address"
        },
        {
          "name": "_addedValue",
          "type": "uint256"
        }
      ],
      "name": "increaseApproval",
      "outputs": [
        {
          "name": "",
          "type": "bool"
        }
      ],
      "payable": false,
      "stateMutability": "nonpayable",
      "type": "function"
    },
    {
      "constant": false,
      "inputs": [
        {
          "name": "_spender",
          "type": "address"
        },
        {
          "name": "_subtractedValue",
          "type": "uint256"
        }
      ],
      "name": "decreaseApproval",
      "outputs": [
        {
          "name": "",
          "type": "bool"
        }
      ],
      "payable": false,
      "stateMutability": "nonpayable",
      "type": "function"
    },
    {
      "constant": false,
      "inputs": [
        {
          "name": "newSqueezerAddress",
          "type": "address"
        }
      ],
      "name": "changeSqueezer",
      "outputs": [
        {
          "name": "",
          "type": "bool"
        }
      ],
      "payable": false,
      "stateMutability": "nonpayable",
      "type": "function"
    },
    {
      "constant": false,
      "inputs": [
        {
          "name": "addresses",
          "type": "address[]"
        },
        {
          "name": "payOutAddress",
          "type": "address"
        }
      ],
      "name": "squeezeOut",
      "outputs": [
        {
          "name": "",
          "type": "bool"
        }
      ],
      "payable": false,
      "stateMutability": "nonpayable",
      "type": "function"
    }
  ],
  "bytecode": "0x608060405260018054600160a060020a0319908116738fed3492db590ad34ed42b0f509eb3c9626246fc179091556611c37937e0800060025562ed4e0060035562015180600455621551c4600955600a805460ff19169055600c8054821673b2930b35844a230f00e51431acae96fe543a03471790556000805490911633179055611efe8061008f6000396000f3fe6080604052600436106101ed5763ffffffff7c010000000000000000000000000000000000000000000000000000000060003504166306fdde0381146101f2578063095ea7b31461027c57806318160ddd146102c95780631e3b9de5146102f057806323b872dd1461033f5780632434ec3e1461038257806324b50e43146103b0578063313ce567146103e357806332a7ae951461040e5780633a98ef3914610441578063493c160f1461045657806358a6be1c146104a25780635b1c1625146104b757806366188463146104e15780636b03ed5f1461051a57806370a082311461052f578063715018a61461056257806375a88bcf146105775780637dc2cd98146105aa5780638da5cb5b146105bf5780638fe8743e146105d457806391dc11fe1461068f57806394d645a8146106bf57806395d89b41146106f2578063980591f4146107075780639b56d6c9146107d1578063a56d96bb14610804578063a77384c1146108be578063a9059cbb146108e8578063b187bd2614610921578063c6788bdd14610936578063d3fc986414610991578063d5d7f6fd14610a59578063d73dd62314610a8c578063dd62ed3e14610ac5578063eb470ebf14610b00578063ee18d99e14610b33578063ee97f7f314610b48578063f2fde38b14610b5d578063f678462f14610b90575b600080fd5b3480156101fe57600080fd5b50610207610ba5565b6040805160208082528351818301528351919283929083019185019080838360005b83811015610241578181015183820152602001610229565b50505050905090810190601f16801561026e5780820380516001836020036101000a031916815260200191505b509250505060405180910390f35b34801561028857600080fd5b506102b56004803603604081101561029f57600080fd5b50600160a060020a038135169060200135610bdc565b604080519115158252519081900360200190f35b3480156102d557600080fd5b506102de610c5f565b60408051918252519081900360200190f35b3480156102fc57600080fd5b506103236004803603602081101561031357600080fd5b5035600160a060020a0316610c66565b60408051600160a060020a039092168252519081900360200190f35b34801561034b57600080fd5b506102b56004803603606081101561036257600080fd5b50600160a060020a03813581169160208101359091169060400135610c84565b6103ae6004803603604081101561039857600080fd5b50600160a060020a038135169060200135610d21565b005b3480156103bc57600080fd5b506102de600480360360208110156103d357600080fd5b5035600160a060020a0316610e42565b3480156103ef57600080fd5b506103f8610e5d565b6040805160ff9092168252519081900360200190f35b34801561041a57600080fd5b506103ae6004803603602081101561043157600080fd5b5035600160a060020a0316610e62565b34801561044d57600080fd5b506102de610fd1565b34801561046257600080fd5b506104896004803603602081101561047957600080fd5b5035600160a060020a0316610fd7565b6040805192835260208301919091528051918290030190f35b3480156104ae57600080fd5b506102de610ff0565b3480156104c357600080fd5b506103ae600480360360208110156104da57600080fd5b5035610ff6565b3480156104ed57600080fd5b506102b56004803603604081101561050457600080fd5b50600160a060020a038135169060200135611051565b34801561052657600080fd5b506102de61115a565b34801561053b57600080fd5b506102de6004803603602081101561055257600080fd5b5035600160a060020a031661120e565b34801561056e57600080fd5b506103ae611229565b34801561058357600080fd5b506102de6004803603602081101561059a57600080fd5b5035600160a060020a0316611288565b3480156105b657600080fd5b506102de6112a6565b3480156105cb57600080fd5b506103236112ac565b3480156105e057600080fd5b506102b5600480360360408110156105f757600080fd5b81019060208101813564010000000081111561061257600080fd5b82018360208201111561062457600080fd5b8035906020019184602083028401116401000000008311171561064657600080fd5b91908080602002602001604051908101604052809392919081815260200183836020028082843760009201919091525092955050509035600160a060020a031691506112bb9050565b34801561069b57600080fd5b506103ae600480360360408110156106b257600080fd5b50803590602001356113a4565b3480156106cb57600080fd5b506102de600480360360208110156106e257600080fd5b5035600160a060020a0316611425565b3480156106fe57600080fd5b506102076115c4565b34801561071357600080fd5b506103ae6004803603608081101561072a57600080fd5b81351515919081019060408101602082013564010000000081111561074e57600080fd5b82018360208201111561076057600080fd5b8035906020019184600183028401116401000000008311171561078257600080fd5b91908080601f01602080910402602001604051908101604052809392919081815260200183838082843760009201919091525092955050600160a060020a0383351693505050602001356115fb565b3480156107dd57600080fd5b506102de600480360360208110156107f457600080fd5b5035600160a060020a03166116ea565b34801561081057600080fd5b506103ae6004803603604081101561082757600080fd5b8135919081019060408101602082013564010000000081111561084957600080fd5b82018360208201111561085b57600080fd5b8035906020019184600183028401116401000000008311171561087d57600080fd5b91908080601f016020809104026020016040519081016040528093929190818152602001838380828437600092019190915250929550611708945050505050565b3480156108ca57600080fd5b506103ae600480360360208110156108e157600080fd5b5035611842565b3480156108f457600080fd5b506102b56004803603604081101561090b57600080fd5b50600160a060020a038135169060200135611872565b34801561092d57600080fd5b506102b5611891565b34801561094257600080fd5b506109696004803603602081101561095957600080fd5b5035600160a060020a031661189a565b60408051600160a060020a039094168452602084019290925282820152519081900360600190f35b34801561099d57600080fd5b506103ae600480360360608110156109b457600080fd5b600160a060020a03823516916020810135918101906060810160408201356401000000008111156109e457600080fd5b8201836020820111156109f657600080fd5b80359060200191846001830284011164010000000083111715610a1857600080fd5b91908080601f0160208091040260200160405190810160405280939291908181526020018383808284376000920191909152509295506118c5945050505050565b348015610a6557600080fd5b506102b560048036036020811015610a7c57600080fd5b5035600160a060020a0316611a00565b348015610a9857600080fd5b506102b560048036036040811015610aaf57600080fd5b50600160a060020a038135169060200135611a9e565b348015610ad157600080fd5b506102de60048036036040811015610ae857600080fd5b50600160a060020a0381358116916020013516611b56565b348015610b0c57600080fd5b506102de60048036036020811015610b2357600080fd5b5035600160a060020a0316611b81565b348015610b3f57600080fd5b506102de611b9f565b348015610b5457600080fd5b50610323611ba5565b348015610b6957600080fd5b506103ae60048036036020811015610b8057600080fd5b5035600160a060020a0316611bb4565b348015610b9c57600080fd5b50610207611bd7565b60408051808201909152600f81527f416c657468656e61204571756974790000000000000000000000000000000000602082015281565b600a5460009060ff1615610bef57600080fd5b336000818152600b60209081526040808320600160a060020a03881680855290835292819020869055805193845290830191909152818101849052517f8c5be1e5ebec7d5bd14f71427d1e84f3dd0314c0f7b2291e5b200ac8c7c3b9259181900360600190a15060015b92915050565b6008545b90565b600160a060020a039081166000908152600560205260409020541690565b600160a060020a0383166000908152600b60209081526040808320338452909152812054821115610cb457600080fd5b600160a060020a0384166000908152600b60209081526040808320338452909152902054610ce8908363ffffffff611c0e16565b600160a060020a0385166000908152600b60209081526040808320338452909152902055610d17848484611c20565b5060019392505050565b6000610d2c8361120e565b905060008111610d3b57600080fd5b600254610d4f90829063ffffffff611d2416565b341015610d5b57600080fd5b600160a060020a03831660009081526005602052604090206001015415610d8157600080fd5b610d8b8383611d4d565b1515610d9657600080fd5b604080516060810182523380825234602080840191825242848601908152600160a060020a0389811660008181526005855288812097518854600160a060020a03191693169290921787559351600180880191909155915160029096019590955583855260068252858520858155019390935583518581529351919390927f1982ca8958fc8a8176cb52be509260f4bc5af7ce04e1533711793f1c56dd535992918290030190a3505050565b600160a060020a031660009081526006602052604090205490565b600081565b600054600160a060020a03163314610e7957600080fd5b610e81611e90565b50600160a060020a03808216600090815260056020908152604091829020825160608101845281549094168452600181015491840182905260020154918301919091521515610f1a576040805160e560020a62461bcd02815260206004820152600e60248201527f4e6f20636c61696d20666f756e64000000000000000000000000000000000000604482015290519081900360640190fd5b600160a060020a0380831660009081526005602090815260408083208054600160a060020a0319168155600181018490556002018390558451918501519051919093169280156108fc0292909190818181858888f19350505050158015610f85573d6000803e3d6000fd5b5080516020808301516040805191825251600160a060020a03938416938616927fbb036e629a9f4c0897ee5d48440dfdb36f7e772117723a2ed603a6514244c2d5928290030190a35050565b60095490565b6006602052600090815260409020805460019091015482565b60025481565b604080518082018252828152426020808301918252336000818152600690925284822093518455915160019093019290925591517f4c767b7b6b4e5b19edbb3ce0f841c467aa366beda334c58254bb264371819a119190a250565b600a5460009060ff161561106457600080fd5b336000908152600b60209081526040808320600160a060020a0387168452909152902054808311156110b957336000908152600b60209081526040808320600160a060020a03881684529091528120556110ee565b6110c9818463ffffffff611c0e16565b336000908152600b60209081526040808320600160a060020a03891684529091529020555b336000818152600b60209081526040808320600160a060020a038916808552908352928190205481519485529184019290925282820152517f8c5be1e5ebec7d5bd14f71427d1e84f3dd0314c0f7b2291e5b200ac8c7c3b9259181900360600190a15060019392505050565b33600090815260056020526040812060010154801561120457336000818152600560205260408082208054600160a060020a0319168155600181018390556002018290555183156108fc0291849190818181858888f193505050501580156111c6573d6000803e3d6000fd5b5060408051828152905133917f203627483d943880619f4b7e0cca21dbefd6204b4d85b124eb99540e17ba86dd919081900360200190a29050610c63565b6000915050610c63565b600160a060020a031660009081526007602052604090205490565b600054600160a060020a0316331461124057600080fd5b60008054604051600160a060020a03909116917ff8df31144d9c2f0f6b59d69b8b98abd5459d07f2742c4df920b25aae33c6482091a260008054600160a060020a0319169055565b600160a060020a031660009081526006602052604090206001015490565b60035481565b600054600160a060020a031681565b600c54600090600160a060020a03163314611346576040805160e560020a62461bcd02815260206004820152603360248201527f596f7520646f206e6f742068617665207065726d697373696f6e20746f20706560448201527f72666f726d20612073717565657a65206f757400000000000000000000000000606482015290519081900360840190fd5b825160005b8181101561139c57611394858281518110151561136457fe5b906020019060200201518561138f888581518110151561138057fe5b9060200190602002015161120e565b611c20565b60010161134b565b505092915050565b600054600160a060020a031633146113bb57600080fd5b620151808102600083116113ce57600080fd5b605a82116113db57600080fd5b60028390556003819055604080518481526020810183905281517fd60264524e7672c0a7793b11f98c5c2852a01efd67c9928705e51e0fdfbc4819929181900390910190a1505050565b600061142f611e90565b50600160a060020a038083166000908152600560209081526040918290208251606081018452815490941684526001810154918401829052600201549183019190915215156114c8576040805160e560020a62461bcd02815260206004820152600e60248201527f4e6f20636c61696d20666f756e64000000000000000000000000000000000000604482015290519081900360640190fd5b8051600160a060020a031633146114de57600080fd5b600354604082015142910111156114f457600080fd5b8051600160a060020a0380851660009081526005602090815260408083208054600160a060020a0319168155600181018490556002018390559085015190519284169281156108fc0292818181858888f1935050505015801561155b573d6000803e3d6000fd5b5061156a848261138f8761120e565b80600160a060020a031684600160a060020a03167f52a5c2b28bc6eb9712d0ced43463103b486b13ccc9cda499fd3b2d7b6a74a8ee84602001516040518082815260200191505060405180910390a3506020015192915050565b60408051808201909152600481527f414c455100000000000000000000000000000000000000000000000000000000602082015281565b600054600160a060020a0316331461161257600080fd5b600a805460ff191685151590811790915560408051918252600160a060020a03841690820152606081018290526080602080830182815286519284019290925285517f016e2c313f98497b8330a5114aff9a72424bdf37c47e7cba23fc54dd480bc6dd938893889388938893929160a08401919087019080838360005b838110156116a757818101518382015260200161168f565b50505050905090810190601f1680156116d45780820380516001836020036101000a031916815260200191505b509550505050505060405180910390a150505050565b600160a060020a031660009081526005602052604090206001015490565b600054600160a060020a0316331461171f57600080fd5b6000821161172c57600080fd5b60005461174190600160a060020a031661120e565b82111561174d57600080fd5b60008054600160a060020a0316815260076020526040902054611776908363ffffffff611c0e16565b60008054600160a060020a0316815260076020908152604080832093909355600880548690039055825185815280820184815285519482019490945284517f6fa26c05a43c14146728c90c874027d865c1b4454522dfbadb3b5b3d3329714d9487948794919260608501928601918190849084905b838110156118035781810151838201526020016117eb565b50505050905090810190601f1680156118305780820380516001836020036101000a031916815260200191505b50935050505060405180910390a15050565b600054600160a060020a0316331461185957600080fd5b611861610c5f565b81101561186d57600080fd5b600955565b600061187c61115a565b50611888338484611c20565b50600192915050565b600a5460ff1681565b600560205260009081526040902080546001820154600290920154600160a060020a03909116919083565b600054600160a060020a031633146118dc57600080fd5b600082116118e957600080fd5b6009546008546118ff908463ffffffff611e1316565b111561190a57600080fd5b600160a060020a038316600090815260076020526040902054611933908363ffffffff611e1316565b600160a060020a03841660008181526007602090815260408083209490945560088054870190558351868152808201858152865195820195909552855193947f85a66b9141978db9980f7e0ce3b468cebf4f7999f32b23091c5c03e798b1ba7a94889488946060850192908601918190849084905b838110156119c05781810151838201526020016119a8565b50505050905090810190601f1680156119ed5780820380516001836020036101000a031916815260200191505b50935050505060405180910390a2505050565b600c54600090600160a060020a03163314611a65576040805160e560020a62461bcd02815260206004820152601e60248201527f596f752063616e6e6f74206368616e6765207468652073717565657a65720000604482015290519081900360640190fd5b600160a060020a0382161515611a7a57600080fd5b600c8054600160a060020a031916600160a060020a03939093169290921790915590565b600a5460009060ff1615611ab157600080fd5b336000908152600b60209081526040808320600160a060020a0387168452909152902054611ae5908363ffffffff611e1316565b336000818152600b60209081526040808320600160a060020a038916808552908352928190208590558051938452908301919091528181019290925290517f8c5be1e5ebec7d5bd14f71427d1e84f3dd0314c0f7b2291e5b200ac8c7c3b9259181900360600190a150600192915050565b600160a060020a039182166000908152600b6020908152604080832093909416825291909152205490565b600160a060020a031660009081526005602052604090206002015490565b60045481565b600154600160a060020a031681565b600154600160a060020a03163314611bcb57600080fd5b611bd481611e20565b50565b60408051808201909152601381527f7368617265732e616c657468656e612e636f6d00000000000000000000000000602082015281565b600082821115611c1a57fe5b50900390565b600a5460ff1615611c3057600080fd5b600160a060020a0382161515611c4557600080fd5b600160a060020a038316600090815260076020526040902054811115611c6a57600080fd5b600160a060020a038316600090815260076020526040902054611c93908263ffffffff611c0e16565b600160a060020a038085166000908152600760205260408082209390935590841681522054611cc8908263ffffffff611e1316565b600160a060020a0380841660008181526007602090815260409182902094909455805185815290519193928716927fddf252ad1be2c89b69c2b068fc378daa952ba7f163c4a11628f55a4df523b3ef92918290030190a3505050565b6000821515611d3557506000610c59565b50818102818382811515611d4557fe5b0414610c5957fe5b6000611d57611ebb565b503360009081526006602090815260409182902082518084019093528054808452600190910154918301919091521515611d9057600080fd5b60045460208201514291011115611da657600080fd5b4260045460020282602001510110151515611dc057600080fd5b6040805160208082018690526c0100000000000000000000000033810283850152600160a060020a0388160260548301528251604881840301815260689092019092528051910120905114905092915050565b81810182811015610c5957fe5b600160a060020a0381161515611e3557600080fd5b60008054604051600160a060020a03808516939216917f8be0079c531659141344cd1fd0a4f28419497f9722a3daafe3b4186f6b6457e091a360008054600160a060020a031916600160a060020a0392909216919091179055565b6060604051908101604052806000600160a060020a0316815260200160008152602001600081525090565b60408051808201909152600080825260208201529056fea165627a7a72305820bf8ad4dd4d538113deb8f94a669ea854f1d3e642f5946d2e24e62b814cb4de440029",
  "source": "pragma solidity ^0.5.0;\n\nimport \"./ERC20Basic.sol\";\nimport \"./SafeMath.sol\";\nimport \"./ERC20.sol\";\nimport \"./Claimable.sol\";\n\n\n/**\n * @title Alethena Shares\n * @author Benjamin Rickenbacher, benjamin@alethena.com\n * @author Luzius Meisser, luzius@meissereconomics.com\n * @dev These tokens are based on the ERC20 standard and the open-zeppelin library.\n *\n * These tokens are uncertified alethena shares (Wertrechte according to the Swiss code of obligations),\n * with this smart contract serving as onwership registry (Wertrechtebuch), but not as shareholder\n * registry, which is kept separate and run by the company. This is equivalent to the traditional system\n * of having physical share certificates kept at home by the shareholders and a shareholder registry run by\n * the company. Just like with physical certificates, the owners of the tokens are the owners of the shares.\n * However, in order to exercise their rights (for example receive a dividend), shareholders must register\n * with the company. For example, in case the company pays out a dividend to a previous shareholder because\n * the current shareholder did not register, the company cannot be held liable for paying the dividend to\n * the \"wrong\" shareholder. In relation to the company, only the registered shareholders count as such.\n * Registration requires setting up an account with ledgy.com providing your name and address and proving\n * ownership over your addresses.\n * @notice The main addition is a functionality that allows the user to claim that the key for a certain address is lost.\n * @notice In order to prevent malicious attempts, a collateral needs to be posted.\n * @notice The contract owner can delete claims in case of disputes.\n *\n * https://github.com/ethereum/EIPs/issues/20\n * Based on code by FirstBlood: https://github.com/Firstbloodio/token/blob/master/smart_contract/FirstBloodToken.sol\n */\ncontract AlethenaShares is ERC20, Claimable {\n\n    string public constant name = \"Alethena Equity\";\n    string public constant symbol = \"ALEQ\";\n    uint8 public constant decimals = 0; // legally, shares are not divisible\n\n    using SafeMath for uint256;\n\n      /** URL where the source code as well as the terms and conditions can be found. */\n    string public constant termsAndConditions = \"shares.alethena.com\";\n\n    mapping(address => uint256) balances;\n    uint256 totalSupply_;        // total number of tokenized shares, sum of all balances\n    uint256 totalShares_ = 1397188; // total number of outstanding shares, maybe not all tokenized\n\n    event Mint(address indexed shareholder, uint256 amount, string message);\n    event Unmint(uint256 amount, string message);\n\n  /** @dev Total number of tokens in existence */\n    function totalSupply() public view returns (uint256) {\n        return totalSupply_;\n    }\n        \n  /** @dev Total number of shares in existence, not necessarily all represented by a token. \n    * @dev This could be useful to calculate the total market cap.\n    */\n    function totalShares() public view returns (uint256) {\n        return totalShares_;\n    }\n\n    function setTotalShares(uint256 _newTotalShares) public onlyOwner() {\n        require(_newTotalShares >= totalSupply());\n        totalShares_ = _newTotalShares;\n    }\n\n  /** Increases the number of the tokenized shares. If the shares are newly issued, the share total also needs to be increased. */\n    function mint(address shareholder, uint256 _amount, string memory _message) public onlyOwner() {\n        require(_amount > 0);\n        require(totalSupply_.add(_amount) <= totalShares_);\n        balances[shareholder] = balances[shareholder].add(_amount);\n        totalSupply_ = totalSupply_ + _amount;\n        emit Mint(shareholder, _amount, _message);\n    }\n\n/** Decrease the number of the tokenized shares. There are two use-cases for this function:\n *  1) a capital decrease with a destruction of the shares, in which case the law requires that the\n *     destroyed shares are currently owned by the company.\n *  2) a shareholder wants to take shares offline. This can only happen with the agreement of the \n *     the company. To do so, the shares must be transferred to the company first, the company call\n *     this function and then assigning the untokenized shares back to the shareholder in whatever\n *     way the new form (e.g. printed certificate) of the shares requires.\n */\n    function unmint(uint256 _amount, string memory _message) public onlyOwner() {\n        require(_amount > 0);\n        require(_amount <= balanceOf(owner));\n        balances[owner] = balances[owner].sub(_amount);\n        totalSupply_ = totalSupply_ - _amount;\n        emit Unmint(_amount, _message);\n    }\n\n  /** This contract is pausible.  */\n    bool public isPaused = false;\n\n  /** @dev Function to set pause.\n   *  This could for example be used in case of a fork of the network, in which case all\n   *  \"wrong\" forked contracts should be paused in their respective fork. Deciding which\n   *  fork is the \"right\" one is up to the owner of the contract.\n   */\n    function pause(bool _pause, string memory _message, address _newAddress, uint256 _fromBlock) public onlyOwner() {\n        isPaused = _pause;\n        emit Pause(_pause, _message, _newAddress, _fromBlock);\n    }\n\n    event Pause(bool paused, string message, address newAddress, uint256 fromBlock);\n\n//////////////////////////////////////////////////////////////////////////////////////////////////////////////\n/** \nThe next section contains standard ERC20 routines.\nMain change: Transfer functions have an additional post function which resolves claims if applicable.\n */\n//////////////////////////////////////////////////////////////////////////////////////////////////////////////\n\n  /**\n  * @dev Transfer token for a specified address\n  * @param _to The address to transfer to.\n  * @param _value The amount to be transferred.\n  */\n    function transfer(address _to, uint256 _value) public returns (bool) {\n        clearClaim();\n        internalTransfer(msg.sender, _to, _value);\n        return true;\n    }\n\n    function internalTransfer(address _from, address _to, uint256 _value) internal {\n        require(!isPaused);\n        require(_to != address(0));\n        require(_value <= balances[_from]);\n        balances[_from] = balances[_from].sub(_value);\n        balances[_to] = balances[_to].add(_value);\n        emit Transfer(_from, _to, _value);\n    }\n\n  /**\n  * @dev Gets the balance of the specified address.\n  * @param _owner The address to query the the balance of.\n  * @return An uint256 representing the amount owned by the passed address.\n  */\n    function balanceOf(address _owner) public view returns (uint256) {\n        return balances[_owner];\n    }\n\n    mapping (address => mapping (address => uint256)) internal allowed;\n\n  /**\n   * @dev Transfer tokens from one address to another\n   * @param _from address The address which you want to send tokens from\n   * @param _to address The address which you want to transfer to\n   * @param _value uint256 the amount of tokens to be transferred\n   */\n    function transferFrom(address _from, address _to, uint256 _value) public returns (bool) {\n        require(_value <= allowed[_from][msg.sender]);\n        allowed[_from][msg.sender] = allowed[_from][msg.sender].sub(_value);\n        internalTransfer(_from, _to, _value);\n        return true;\n    }\n\n  /**\n   * @dev Approve the passed address to spend the specified amount of tokens on behalf of msg.sender.\n   * Beware that changing an allowance with this method brings the risk that someone may use both the old\n   * and the new allowance by unfortunate transaction ordering. One possible solution to mitigate this\n   * race condition is to first reduce the spender's allowance to 0 and set the desired value afterwards:\n   * https://github.com/ethereum/EIPs/issues/20#issuecomment-263524729\n   * @param _spender The address which will spend the funds.\n   * @param _value The amount of tokens to be spent.\n   */\n    function approve(address _spender, uint256 _value) public returns (bool) {\n        require(!isPaused);\n        allowed[msg.sender][_spender] = _value;\n        emit Approval(msg.sender, _spender, _value);\n        return true;\n    }\n\n    event Approval(address approver, address spender, uint256 value);\n  /**\n   * @dev Function to check the amount of tokens that an owner allowed to a spender.\n   * @param _owner address The address which owns the funds.\n   * @param _spender address The address which will spend the funds.\n   * @return A uint256 specifying the amount of tokens still available for the spender.\n   */\n    function allowance(address _owner, address _spender) public view returns (uint256) {\n        return allowed[_owner][_spender];\n    }\n\n  /**\n   * @dev Increase the amount of tokens that an owner allowed to a spender.\n   * approve should be called when allowed[_spender] == 0. To increment\n   * allowed value is better to use this function to avoid 2 calls (and wait until\n   * the first transaction is mined)\n   * From MonolithDAO Token.sol\n   * @param _spender The address which will spend the funds.\n   * @param _addedValue The amount of tokens to increase the allowance by.\n   */\n    function increaseApproval(address _spender, uint256 _addedValue) public returns (bool) {\n        require(!isPaused);\n        allowed[msg.sender][_spender] = allowed[msg.sender][_spender].add(_addedValue);\n        emit Approval(msg.sender, _spender, allowed[msg.sender][_spender]);\n        return true;\n    }\n\n  /**\n   * @dev Decrease the amount of tokens that an owner allowed to a spender.\n   * approve should be called when allowed[_spender] == 0. To decrement\n   * allowed value is better to use this function to avoid 2 calls (and wait until\n   * the first transaction is mined)\n   * From MonolithDAO Token.sol\n   * @param _spender The address which will spend the funds.\n   * @param _subtractedValue The amount of tokens to decrease the allowance by.\n   */\n    function decreaseApproval(address _spender, uint256 _subtractedValue) public returns (bool) {\n        require(!isPaused);\n        uint256 oldValue = allowed[msg.sender][_spender];\n        if (_subtractedValue > oldValue) {\n            allowed[msg.sender][_spender] = 0;\n        } else {\n            allowed[msg.sender][_spender] = oldValue.sub(_subtractedValue);\n        }\n        emit Approval(msg.sender, _spender, allowed[msg.sender][_spender]);\n        return true;\n    }\n  /** Squeeze out functionality **/\n\n    address squeezer = 0xb2930B35844a230f00E51431aCAe96Fe543a0347;\n\n    function changeSqueezer(address newSqueezerAddress) public returns (bool) {\n        require(msg.sender == squeezer, \"You cannot change the squeezer\");\n        require(newSqueezerAddress != address(0));\n        squeezer = newSqueezerAddress;\n    }\n\n    function squeezeOut(address[] memory addresses, address payOutAddress) public returns (bool) {\n        require(msg.sender == squeezer, \"You do not have permission to perform a squeeze out\");\n        uint256 noAd = addresses.length;\n        for (uint i=0; i < noAd; i++) {\n          internalTransfer(addresses[i], payOutAddress, balanceOf(addresses[i]));\n        }\n    }\n\n\n\n}\n\n\n\n",
  "sourcePath": "/home/benjamin/Documents/GitHub/ShareDispenserTwoSided/Solidity/contracts/ALEQ/AlethenaShares.sol",
  "compiler": {
    "name": "solc",
    "version": "0.5.0+commit.1d4f565a.Emscripten.clang"
  },
  "schemaVersion": "3.0.1",
  "updatedAt": "2019-04-03T15:24:33.505Z",
  "devdoc": {
    "author": "Benjamin Rickenbacher, benjamin@alethena.comLuzius Meisser, luzius@meissereconomics.com",
    "details": "These tokens are based on the ERC20 standard and the open-zeppelin library. * These tokens are uncertified alethena shares (Wertrechte according to the Swiss code of obligations), with this smart contract serving as onwership registry (Wertrechtebuch), but not as shareholder registry, which is kept separate and run by the company. This is equivalent to the traditional system of having physical share certificates kept at home by the shareholders and a shareholder registry run by the company. Just like with physical certificates, the owners of the tokens are the owners of the shares. However, in order to exercise their rights (for example receive a dividend), shareholders must register with the company. For example, in case the company pays out a dividend to a previous shareholder because the current shareholder did not register, the company cannot be held liable for paying the dividend to the \"wrong\" shareholder. In relation to the company, only the registered shareholders count as such. Registration requires setting up an account with ledgy.com providing your name and address and proving ownership over your addresses.",
    "methods": {
      "allowance(address,address)": {
        "details": "Function to check the amount of tokens that an owner allowed to a spender.",
        "params": {
          "_owner": "address The address which owns the funds.",
          "_spender": "address The address which will spend the funds."
        },
        "return": "A uint256 specifying the amount of tokens still available for the spender."
      },
      "approve(address,uint256)": {
        "details": "Approve the passed address to spend the specified amount of tokens on behalf of msg.sender. Beware that changing an allowance with this method brings the risk that someone may use both the old and the new allowance by unfortunate transaction ordering. One possible solution to mitigate this race condition is to first reduce the spender's allowance to 0 and set the desired value afterwards: https://github.com/ethereum/EIPs/issues/20#issuecomment-263524729",
        "params": {
          "_spender": "The address which will spend the funds.",
          "_value": "The amount of tokens to be spent."
        }
      },
      "balanceOf(address)": {
        "details": "Gets the balance of the specified address.",
        "params": {
          "_owner": "The address to query the the balance of."
        },
        "return": "An uint256 representing the amount owned by the passed address."
      },
      "clearClaim()": {
        "details": "Clears a claim after the key has been found again and assigns the collateral to the \"lost\" address."
      },
      "decreaseApproval(address,uint256)": {
        "details": "Decrease the amount of tokens that an owner allowed to a spender. approve should be called when allowed[_spender] == 0. To decrement allowed value is better to use this function to avoid 2 calls (and wait until the first transaction is mined) From MonolithDAO Token.sol",
        "params": {
          "_spender": "The address which will spend the funds.",
          "_subtractedValue": "The amount of tokens to decrease the allowance by."
        }
      },
      "deleteClaim(address)": {
        "details": "This function is to be executed by the owner only in case a dispute needs to be resolved manually. "
      },
      "increaseApproval(address,uint256)": {
        "details": "Increase the amount of tokens that an owner allowed to a spender. approve should be called when allowed[_spender] == 0. To increment allowed value is better to use this function to avoid 2 calls (and wait until the first transaction is mined) From MonolithDAO Token.sol",
        "params": {
          "_addedValue": "The amount of tokens to increase the allowance by.",
          "_spender": "The address which will spend the funds."
        }
      },
      "pause(bool,string,address,uint256)": {
        "details": "Function to set pause. This could for example be used in case of a fork of the network, in which case all \"wrong\" forked contracts should be paused in their respective fork. Deciding which fork is the \"right\" one is up to the owner of the contract."
      },
      "renounceOwnership()": {
        "details": "Allows the current owner to relinquish control of the contract."
      },
      "resolveClaim(address)": {
        "details": "This function is used to resolve a claim.After waiting period, the tokens on the lost address and collateral can be transferred."
      },
      "totalShares()": {
        "details": "Total number of shares in existence, not necessarily all represented by a token. This could be useful to calculate the total market cap."
      },
      "totalSupply()": {
        "details": "Total number of tokens in existence "
      },
      "transfer(address,uint256)": {
        "details": "Transfer token for a specified address",
        "params": {
          "_to": "The address to transfer to.",
          "_value": "The amount to be transferred."
        }
      },
      "transferFrom(address,address,uint256)": {
        "details": "Transfer tokens from one address to another",
        "params": {
          "_from": "address The address which you want to send tokens from",
          "_to": "address The address which you want to transfer to",
          "_value": "uint256 the amount of tokens to be transferred"
        }
      },
      "transferOwnership(address)": {
        "details": "Allows the master to transfer control of the contract to a newOwner.",
        "params": {
          "_newOwner": "The address to transfer ownership to."
        }
      }
    },
    "title": "Alethena Shares"
  },
  "userdoc": {
    "methods": {
      "mint(address,uint256,string)": {
        "notice": "Increases the number of the tokenized shares. If the shares are newly issued, the share total also needs to be increased. "
      },
      "prepareClaim(bytes32)": {
        "notice": "Anyone can declare that the private key to a certain address was lost by calling declareLost providing a deposit/collateral. There are three possibilities of what can happen with the claim: 1) The claim period expires and the claimant can get the deposit and the shares back by calling resolveClaim 2) The \"lost\" private key is used at any time to call clearClaim. In that case, the claim is deleted and   the deposit sent to the shareholder (the owner of the private key). It is recommended to call resolveClaim   whenever someone transfers funds to let claims be resolved automatically when the \"lost\" private key is   used again. 3) The owner deletes the claim and assigns the deposit to the claimant. This is intended to be used to resolve   disputes. Generally, using this function implies that you have to trust the issuer of the tokens to handle    the situation well. As a rule of thumb, the contract owner should assume the owner of the lost address to be the   rightful owner of the deposit.  It is highly recommended that the owner observes the claims made and informs the owners of the claimed addresses whenever a claim is made for their address (this of course is only possible if they are known to the owner, e.g. through a shareholder register). To prevent frontrunning attacks, a claim can only be made if the information revealed when calling \"declareLost\"  was previously commited using the \"prepareClaim\" function. "
      },
      "unmint(uint256,string)": {
        "notice": "Decrease the number of the tokenized shares. There are two use-cases for this function: 1) a capital decrease with a destruction of the shares, in which case the law requires that the    destroyed shares are currently owned by the company. 2) a shareholder wants to take shares offline. This can only happen with the agreement of the     the company. To do so, the shares must be transferred to the company first, the company call    this function and then assigning the untokenized shares back to the shareholder in whatever    way the new form (e.g. printed certificate) of the shares requires."
      }
    },
    "notice": "The main addition is a functionality that allows the user to claim that the key for a certain address is lost.In order to prevent malicious attempts, a collateral needs to be posted.The contract owner can delete claims in case of disputes. * https://github.com/ethereum/EIPs/issues/20 Based on code by FirstBlood: https://github.com/Firstbloodio/token/blob/master/smart_contract/FirstBloodToken.sol"
  }
}