{
  "contractName": "ShareDispenser",
  "abi": [
    {
      "constant": true,
      "inputs": [],
      "name": "usageFeeAddress",
      "outputs": [
        {
          "name": "",
          "type": "address"
        }
      ],
      "payable": false,
      "stateMutability": "view",
      "type": "function"
    },
    {
      "constant": true,
      "inputs": [],
      "name": "XCHFContractAddress",
      "outputs": [
        {
          "name": "",
          "type": "address"
        }
      ],
      "payable": false,
      "stateMutability": "view",
      "type": "function"
    },
    {
      "constant": false,
      "inputs": [],
      "name": "unpause",
      "outputs": [],
      "payable": false,
      "stateMutability": "nonpayable",
      "type": "function"
    },
    {
      "constant": true,
      "inputs": [],
      "name": "minPriceInXCHF",
      "outputs": [
        {
          "name": "",
          "type": "uint256"
        }
      ],
      "payable": false,
      "stateMutability": "view",
      "type": "function"
    },
    {
      "constant": true,
      "inputs": [
        {
          "name": "account",
          "type": "address"
        }
      ],
      "name": "isPauser",
      "outputs": [
        {
          "name": "",
          "type": "bool"
        }
      ],
      "payable": false,
      "stateMutability": "view",
      "type": "function"
    },
    {
      "constant": true,
      "inputs": [],
      "name": "ALEQContractAddress",
      "outputs": [
        {
          "name": "",
          "type": "address"
        }
      ],
      "payable": false,
      "stateMutability": "view",
      "type": "function"
    },
    {
      "constant": true,
      "inputs": [],
      "name": "sellEnabled",
      "outputs": [
        {
          "name": "",
          "type": "bool"
        }
      ],
      "payable": false,
      "stateMutability": "view",
      "type": "function"
    },
    {
      "constant": true,
      "inputs": [],
      "name": "paused",
      "outputs": [
        {
          "name": "",
          "type": "bool"
        }
      ],
      "payable": false,
      "stateMutability": "view",
      "type": "function"
    },
    {
      "constant": false,
      "inputs": [],
      "name": "renouncePauser",
      "outputs": [],
      "payable": false,
      "stateMutability": "nonpayable",
      "type": "function"
    },
    {
      "constant": false,
      "inputs": [],
      "name": "renounceOwnership",
      "outputs": [],
      "payable": false,
      "stateMutability": "nonpayable",
      "type": "function"
    },
    {
      "constant": true,
      "inputs": [],
      "name": "usageFeeBSP",
      "outputs": [
        {
          "name": "",
          "type": "uint256"
        }
      ],
      "payable": false,
      "stateMutability": "view",
      "type": "function"
    },
    {
      "constant": true,
      "inputs": [],
      "name": "initialNumberOfShares",
      "outputs": [
        {
          "name": "",
          "type": "uint256"
        }
      ],
      "payable": false,
      "stateMutability": "view",
      "type": "function"
    },
    {
      "constant": false,
      "inputs": [
        {
          "name": "account",
          "type": "address"
        }
      ],
      "name": "addPauser",
      "outputs": [],
      "payable": false,
      "stateMutability": "nonpayable",
      "type": "function"
    },
    {
      "constant": false,
      "inputs": [],
      "name": "pause",
      "outputs": [],
      "payable": false,
      "stateMutability": "nonpayable",
      "type": "function"
    },
    {
      "constant": true,
      "inputs": [],
      "name": "owner",
      "outputs": [
        {
          "name": "",
          "type": "address"
        }
      ],
      "payable": false,
      "stateMutability": "view",
      "type": "function"
    },
    {
      "constant": true,
      "inputs": [],
      "name": "isOwner",
      "outputs": [
        {
          "name": "",
          "type": "bool"
        }
      ],
      "payable": false,
      "stateMutability": "view",
      "type": "function"
    },
    {
      "constant": true,
      "inputs": [],
      "name": "maxPriceInXCHF",
      "outputs": [
        {
          "name": "",
          "type": "uint256"
        }
      ],
      "payable": false,
      "stateMutability": "view",
      "type": "function"
    },
    {
      "constant": false,
      "inputs": [
        {
          "name": "newOwner",
          "type": "address"
        }
      ],
      "name": "transferOwnership",
      "outputs": [],
      "payable": false,
      "stateMutability": "nonpayable",
      "type": "function"
    },
    {
      "constant": true,
      "inputs": [],
      "name": "minVolume",
      "outputs": [
        {
          "name": "",
          "type": "uint256"
        }
      ],
      "payable": false,
      "stateMutability": "view",
      "type": "function"
    },
    {
      "constant": true,
      "inputs": [],
      "name": "buyEnabled",
      "outputs": [
        {
          "name": "",
          "type": "bool"
        }
      ],
      "payable": false,
      "stateMutability": "view",
      "type": "function"
    },
    {
      "inputs": [
        {
          "name": "initialXCHFContractAddress",
          "type": "address"
        },
        {
          "name": "initialALEQContractAddress",
          "type": "address"
        },
        {
          "name": "initialusageFeeAddress",
          "type": "address"
        }
      ],
      "payable": false,
      "stateMutability": "nonpayable",
      "type": "constructor"
    },
    {
      "payable": true,
      "stateMutability": "payable",
      "type": "fallback"
    },
    {
      "anonymous": false,
      "inputs": [
        {
          "indexed": false,
          "name": "newXCHFContractAddress",
          "type": "address"
        }
      ],
      "name": "XCHFContractAddressSet",
      "type": "event"
    },
    {
      "anonymous": false,
      "inputs": [
        {
          "indexed": false,
          "name": "newALEQContractAddress",
          "type": "address"
        }
      ],
      "name": "ALEQContractAddressSet",
      "type": "event"
    },
    {
      "anonymous": false,
      "inputs": [
        {
          "indexed": false,
          "name": "newUsageFeeAddress",
          "type": "address"
        }
      ],
      "name": "UsageFeeAddressSet",
      "type": "event"
    },
    {
      "anonymous": false,
      "inputs": [
        {
          "indexed": true,
          "name": "buyer",
          "type": "address"
        },
        {
          "indexed": false,
          "name": "amount",
          "type": "uint256"
        },
        {
          "indexed": false,
          "name": "totalPrice",
          "type": "uint256"
        },
        {
          "indexed": false,
          "name": "nextPrice",
          "type": "uint256"
        }
      ],
      "name": "SharesPurchased",
      "type": "event"
    },
    {
      "anonymous": false,
      "inputs": [
        {
          "indexed": true,
          "name": "seller",
          "type": "address"
        },
        {
          "indexed": false,
          "name": "amount",
          "type": "uint256"
        },
        {
          "indexed": false,
          "name": "buyBackPrice",
          "type": "uint256"
        },
        {
          "indexed": false,
          "name": "nextPrice",
          "type": "uint256"
        }
      ],
      "name": "SharesSold",
      "type": "event"
    },
    {
      "anonymous": false,
      "inputs": [
        {
          "indexed": false,
          "name": "contractAddress",
          "type": "address"
        },
        {
          "indexed": true,
          "name": "to",
          "type": "address"
        },
        {
          "indexed": false,
          "name": "amount",
          "type": "uint256"
        }
      ],
      "name": "TokensRetrieved",
      "type": "event"
    },
    {
      "anonymous": false,
      "inputs": [
        {
          "indexed": false,
          "name": "usageFee",
          "type": "uint256"
        }
      ],
      "name": "UsageFeeSet",
      "type": "event"
    },
    {
      "anonymous": false,
      "inputs": [
        {
          "indexed": false,
          "name": "minVolume",
          "type": "uint256"
        }
      ],
      "name": "MinVolumeSet",
      "type": "event"
    },
    {
      "anonymous": false,
      "inputs": [
        {
          "indexed": false,
          "name": "minPrice",
          "type": "uint256"
        }
      ],
      "name": "MinPriceSet",
      "type": "event"
    },
    {
      "anonymous": false,
      "inputs": [
        {
          "indexed": false,
          "name": "maxPrice",
          "type": "uint256"
        }
      ],
      "name": "MaxPriceSet",
      "type": "event"
    },
    {
      "anonymous": false,
      "inputs": [
        {
          "indexed": false,
          "name": "initialNumberOfShares",
          "type": "uint256"
        }
      ],
      "name": "InitialNumberOfSharesSet",
      "type": "event"
    },
    {
      "anonymous": false,
      "inputs": [
        {
          "indexed": false,
          "name": "newStatus",
          "type": "bool"
        }
      ],
      "name": "BuyStatusChanged",
      "type": "event"
    },
    {
      "anonymous": false,
      "inputs": [
        {
          "indexed": false,
          "name": "newStatus",
          "type": "bool"
        }
      ],
      "name": "SellStatusChanged",
      "type": "event"
    },
    {
      "anonymous": false,
      "inputs": [
        {
          "indexed": false,
          "name": "account",
          "type": "address"
        }
      ],
      "name": "Paused",
      "type": "event"
    },
    {
      "anonymous": false,
      "inputs": [
        {
          "indexed": false,
          "name": "account",
          "type": "address"
        }
      ],
      "name": "Unpaused",
      "type": "event"
    },
    {
      "anonymous": false,
      "inputs": [
        {
          "indexed": true,
          "name": "account",
          "type": "address"
        }
      ],
      "name": "PauserAdded",
      "type": "event"
    },
    {
      "anonymous": false,
      "inputs": [
        {
          "indexed": true,
          "name": "account",
          "type": "address"
        }
      ],
      "name": "PauserRemoved",
      "type": "event"
    },
    {
      "anonymous": false,
      "inputs": [
        {
          "indexed": true,
          "name": "previousOwner",
          "type": "address"
        },
        {
          "indexed": true,
          "name": "newOwner",
          "type": "address"
        }
      ],
      "name": "OwnershipTransferred",
      "type": "event"
    },
    {
      "constant": false,
      "inputs": [
        {
          "name": "numberOfSharesToBuy",
          "type": "uint256"
        }
      ],
      "name": "buyShares",
      "outputs": [
        {
          "name": "",
          "type": "bool"
        }
      ],
      "payable": false,
      "stateMutability": "nonpayable",
      "type": "function"
    },
    {
      "constant": false,
      "inputs": [
        {
          "name": "numberOfSharesToSell",
          "type": "uint256"
        },
        {
          "name": "limitInXCHF",
          "type": "uint256"
        }
      ],
      "name": "sellShares",
      "outputs": [
        {
          "name": "",
          "type": "bool"
        }
      ],
      "payable": false,
      "stateMutability": "nonpayable",
      "type": "function"
    },
    {
      "constant": true,
      "inputs": [
        {
          "name": "contractAddress",
          "type": "address"
        }
      ],
      "name": "getERC20Balance",
      "outputs": [
        {
          "name": "",
          "type": "uint256"
        }
      ],
      "payable": false,
      "stateMutability": "view",
      "type": "function"
    },
    {
      "constant": true,
      "inputs": [
        {
          "name": "contractAddress",
          "type": "address"
        },
        {
          "name": "owner",
          "type": "address"
        }
      ],
      "name": "getERC20Available",
      "outputs": [
        {
          "name": "",
          "type": "uint256"
        }
      ],
      "payable": false,
      "stateMutability": "view",
      "type": "function"
    },
    {
      "constant": true,
      "inputs": [
        {
          "name": "amount",
          "type": "uint256"
        },
        {
          "name": "supply",
          "type": "uint256"
        }
      ],
      "name": "getCumulatedPrice",
      "outputs": [
        {
          "name": "",
          "type": "uint256"
        }
      ],
      "payable": false,
      "stateMutability": "view",
      "type": "function"
    },
    {
      "constant": true,
      "inputs": [
        {
          "name": "amount",
          "type": "uint256"
        },
        {
          "name": "supply",
          "type": "uint256"
        }
      ],
      "name": "getCumulatedBuyBackPrice",
      "outputs": [
        {
          "name": "",
          "type": "uint256"
        }
      ],
      "payable": false,
      "stateMutability": "view",
      "type": "function"
    },
    {
      "constant": false,
      "inputs": [
        {
          "name": "contractAddress",
          "type": "address"
        },
        {
          "name": "to",
          "type": "address"
        },
        {
          "name": "amount",
          "type": "uint256"
        }
      ],
      "name": "retrieveERC20",
      "outputs": [
        {
          "name": "",
          "type": "bool"
        }
      ],
      "payable": false,
      "stateMutability": "nonpayable",
      "type": "function"
    },
    {
      "constant": false,
      "inputs": [
        {
          "name": "newXCHFContractAddress",
          "type": "address"
        }
      ],
      "name": "setXCHFContractAddress",
      "outputs": [],
      "payable": false,
      "stateMutability": "nonpayable",
      "type": "function"
    },
    {
      "constant": false,
      "inputs": [
        {
          "name": "newALEQContractAddress",
          "type": "address"
        }
      ],
      "name": "setALEQContractAddress",
      "outputs": [],
      "payable": false,
      "stateMutability": "nonpayable",
      "type": "function"
    },
    {
      "constant": false,
      "inputs": [
        {
          "name": "newUsageFeeAddress",
          "type": "address"
        }
      ],
      "name": "setUsageFeeAddress",
      "outputs": [],
      "payable": false,
      "stateMutability": "nonpayable",
      "type": "function"
    },
    {
      "constant": false,
      "inputs": [
        {
          "name": "newUsageFeeInBSP",
          "type": "uint256"
        }
      ],
      "name": "setUsageFee",
      "outputs": [],
      "payable": false,
      "stateMutability": "nonpayable",
      "type": "function"
    },
    {
      "constant": false,
      "inputs": [
        {
          "name": "newMinVolume",
          "type": "uint256"
        }
      ],
      "name": "setMinVolume",
      "outputs": [],
      "payable": false,
      "stateMutability": "nonpayable",
      "type": "function"
    },
    {
      "constant": false,
      "inputs": [
        {
          "name": "newMinPriceInRappen",
          "type": "uint256"
        }
      ],
      "name": "setminPriceInXCHF",
      "outputs": [],
      "payable": false,
      "stateMutability": "nonpayable",
      "type": "function"
    },
    {
      "constant": false,
      "inputs": [
        {
          "name": "newMaxPriceInRappen",
          "type": "uint256"
        }
      ],
      "name": "setmaxPriceInXCHF",
      "outputs": [],
      "payable": false,
      "stateMutability": "nonpayable",
      "type": "function"
    },
    {
      "constant": false,
      "inputs": [
        {
          "name": "newInitialNumberOfShares",
          "type": "uint256"
        }
      ],
      "name": "setInitialNumberOfShares",
      "outputs": [],
      "payable": false,
      "stateMutability": "nonpayable",
      "type": "function"
    },
    {
      "constant": false,
      "inputs": [
        {
          "name": "newStatus",
          "type": "bool"
        }
      ],
      "name": "buyStatus",
      "outputs": [],
      "payable": false,
      "stateMutability": "nonpayable",
      "type": "function"
    },
    {
      "constant": false,
      "inputs": [
        {
          "name": "newStatus",
          "type": "bool"
        }
      ],
      "name": "sellStatus",
      "outputs": [],
      "payable": false,
      "stateMutability": "nonpayable",
      "type": "function"
    }
  ],
  "bytecode": "0x6080604052600060055560146006556753444835ec580000600755675a34a38fc00a00006008556107d0600955600a805461ff001960ff199091166001171690553480156200004d57600080fd5b506040516060806200325e833981018060405260608110156200006f57600080fd5b508051602082015160409283015160008054600160a060020a03191633178082559451939492939192600160a060020a0316917f8be0079c531659141344cd1fd0a4f28419497f9722a3daafe3b4186f6b6457e0908290a3620000db33640100000000620002e5810204565b6002805460ff19169055600160a060020a03831615156200018357604080517f08c379a000000000000000000000000000000000000000000000000000000000815260206004820152602260248201527f5843484620646f6573206e6f742072657369646520617420616464726573732060448201527f3021000000000000000000000000000000000000000000000000000000000000606482015290519081900360840190fd5b600160a060020a03821615156200022157604080517f08c379a000000000000000000000000000000000000000000000000000000000815260206004820152602260248201527f414c455120646f6573206e6f742072657369646520617420616464726573732060448201527f3021000000000000000000000000000000000000000000000000000000000000606482015290519081900360840190fd5b600160a060020a03811615156200029957604080517f08c379a000000000000000000000000000000000000000000000000000000000815260206004820152601e60248201527f55736167652066656520616464726573732063616e6e6f742062652030210000604482015290519081900360640190fd5b60028054600160a060020a039485166101000261010060a860020a031990911617905560038054928416600160a060020a0319938416179055600480549190931691161790556200049e565b6200030060018264010000000062002ce06200033782021704565b604051600160a060020a038216907f6719d08c1888103bea251a4ed56406bd0c3e69723c8a1686e017e7bbe159b6f890600090a250565b6200034c8282640100000000620003de810204565b15620003b957604080517f08c379a000000000000000000000000000000000000000000000000000000000815260206004820152601f60248201527f526f6c65733a206163636f756e7420616c72656164792068617320726f6c6500604482015290519081900360640190fd5b600160a060020a0316600090815260209190915260409020805460ff19166001179055565b6000600160a060020a03821615156200047e57604080517f08c379a000000000000000000000000000000000000000000000000000000000815260206004820152602260248201527f526f6c65733a206163636f756e7420697320746865207a65726f20616464726560448201527f7373000000000000000000000000000000000000000000000000000000000000606482015290519081900360840190fd5b50600160a060020a03166000908152602091909152604090205460ff1690565b612db080620004ae6000396000f3fe6080604052600436106101b25763ffffffff60e060020a6000350416620974b08114610227578063040b6c741461025c5780630516666e1461028657806305543091146102d357806312fa9e05146103045780631a7220d9146103375780632279a9701461034c57806333af9b3d1461039057806338e5efbb146103bc5780633f4ba83a146103ec5780634633ad211461040157806346fbf68e1461041657806347b5ab521461044957806351c5822814610473578063537f15771461049d57806358197a9d146104b25780635c975abb146104c75780636ef8d66d146104dc578063715018a6146104f1578063730d824014610506578063781b6268146105395780638268b12a1461054e57806382dc1ec4146105635780638456cb59146105965780638a9a6229146105ab5780638da5cb5b146105d55780638f32d59b146105ea578063a5b6076e146105ff578063af10351f1461062b578063b588d22514610640578063d1a93d1814610673578063d63f45941461069d578063e322f2b9146106e0578063f2fde38b14610710578063f4f06c9714610743578063f582d29314610758578063f71d45161461076d575b6040805160e560020a62461bcd028152602060048201526024808201527f5468697320636f6e747261637420646f6573206e6f742061636365707420457460448201527f6865722e00000000000000000000000000000000000000000000000000000000606482015290519081900360840190fd5b34801561023357600080fd5b5061025a6004803603602081101561024a57600080fd5b5035600160a060020a0316610797565b005b34801561026857600080fd5b5061025a6004803603602081101561027f57600080fd5b50356108da565b34801561029257600080fd5b506102c1600480360360408110156102a957600080fd5b50600160a060020a03813581169160200135166109df565b60408051918252519081900360200190f35b3480156102df57600080fd5b506102e8610b2e565b60408051600160a060020a039092168252519081900360200190f35b34801561031057600080fd5b5061025a6004803603602081101561032757600080fd5b5035600160a060020a0316610b3d565b34801561034357600080fd5b506102e8610c76565b34801561035857600080fd5b5061037c6004803603604081101561036f57600080fd5b5080359060200135610c8a565b604080519115158252519081900360200190f35b34801561039c57600080fd5b5061025a600480360360208110156103b357600080fd5b503515156112ee565b3480156103c857600080fd5b506102c1600480360360408110156103df57600080fd5b5080359060200135611389565b3480156103f857600080fd5b5061025a61149d565b34801561040d57600080fd5b506102c16115bd565b34801561042257600080fd5b5061037c6004803603602081101561043957600080fd5b5035600160a060020a03166115c3565b34801561045557600080fd5b5061025a6004803603602081101561046c57600080fd5b50356115d6565b34801561047f57600080fd5b5061025a6004803603602081101561049657600080fd5b503561174d565b3480156104a957600080fd5b506102e861182c565b3480156104be57600080fd5b5061037c61183b565b3480156104d357600080fd5b5061037c611849565b3480156104e857600080fd5b5061025a611852565b3480156104fd57600080fd5b5061025a61185d565b34801561051257600080fd5b5061025a6004803603602081101561052957600080fd5b5035600160a060020a0316611900565b34801561054557600080fd5b506102c1611a39565b34801561055a57600080fd5b506102c1611a3f565b34801561056f57600080fd5b5061025a6004803603602081101561058657600080fd5b5035600160a060020a0316611a45565b3480156105a257600080fd5b5061025a611ad6565b3480156105b757600080fd5b5061025a600480360360208110156105ce57600080fd5b5035611bf8565b3480156105e157600080fd5b506102e8611d6f565b3480156105f657600080fd5b5061037c611d7e565b34801561060b57600080fd5b5061025a6004803603602081101561062257600080fd5b50351515611d8f565b34801561063757600080fd5b506102c1611e22565b34801561064c57600080fd5b506102c16004803603602081101561066357600080fd5b5035600160a060020a0316611e28565b34801561067f57600080fd5b5061037c6004803603602081101561069657600080fd5b5035611ebf565b3480156106a957600080fd5b5061037c600480360360608110156106c057600080fd5b50600160a060020a03813581169160208101359091169060400135612480565b3480156106ec57600080fd5b506102c16004803603604081101561070357600080fd5b508035906020013561260d565b34801561071c57600080fd5b5061025a6004803603602081101561073357600080fd5b5035600160a060020a0316612623565b34801561074f57600080fd5b506102c1612678565b34801561076457600080fd5b5061037c61267e565b34801561077957600080fd5b5061025a6004803603602081101561079057600080fd5b5035612687565b61079f611d7e565b15156107e3576040805160e560020a62461bcd0281526020600482018190526024820152600080516020612d65833981519152604482015290519081900360640190fd5b600160a060020a0381161515610869576040805160e560020a62461bcd02815260206004820152602160248201527f5843484620646f6573206e6f742072657369646520617420616464726573732060448201527f3000000000000000000000000000000000000000000000000000000000000000606482015290519081900360840190fd5b60028054600160a060020a0380841661010090810274ffffffffffffffffffffffffffffffffffffffff00199093169290921792839055604080519290930416815290517f413fe087676ce8246bf0ff64d70a12ecdda2a2a1d8cac17f1705219e7fe98d539181900360200190a150565b6108e2611d7e565b1515610926576040805160e560020a62461bcd0281526020600482018190526024820152600080516020612d65833981519152604482015290519081900360640190fd5b600081116109a4576040805160e560020a62461bcd02815260206004820152602960248201527f496e697469616c206e756d626572206f6620736861726573206d75737420626560448201527f20706f7369746976650000000000000000000000000000000000000000000000606482015290519081900360840190fd5b60098190556040805182815290517fcd96a7687b531518b2ebf975c4be0ef90599ab18332393f3e7dc40f15d22e7259181900360200190a150565b604080517fdd62ed3e000000000000000000000000000000000000000000000000000000008152600160a060020a0383811660048301523060248301529151600092859284929184169163dd62ed3e91604480820192602092909190829003018186803b158015610a4f57600080fd5b505afa158015610a63573d6000803e3d6000fd5b505050506040513d6020811015610a7957600080fd5b5051604080517f70a08231000000000000000000000000000000000000000000000000000000008152600160a060020a0387811660048301529151929350600092918516916370a0823191602480820192602092909190829003018186803b158015610ae457600080fd5b505afa158015610af8573d6000803e3d6000fd5b505050506040513d6020811015610b0e57600080fd5b5051905080821115610b205780610b22565b815b93505050505b92915050565b600454600160a060020a031681565b610b45611d7e565b1515610b89576040805160e560020a62461bcd0281526020600482018190526024820152600080516020612d65833981519152604482015290519081900360640190fd5b600160a060020a0381161515610c0f576040805160e560020a62461bcd02815260206004820152602160248201527f414c455120646f6573206e6f742072657369646520617420616464726573732060448201527f3000000000000000000000000000000000000000000000000000000000000000606482015290519081900360840190fd5b6003805473ffffffffffffffffffffffffffffffffffffffff1916600160a060020a03838116919091179182905560408051929091168252517f7109a0d0ce5ac3ff7110b17e68d7ac8fc8ef771b645e1a0dce03a4988530d681916020908290030190a150565b6002546101009004600160a060020a031681565b60025460009060ff1615610ce8576040805160e560020a62461bcd02815260206004820152601060248201527f5061757361626c653a2070617573656400000000000000000000000000000000604482015290519081900360640190fd5b600a54610100900460ff161515610d49576040805160e560020a62461bcd02815260206004820152601c60248201527f53656c6c696e672069732063757272656e74792064697361626c656400000000604482015290519081900360640190fd5b600654831015610da3576040805160e560020a62461bcd02815260206004820152600e60248201527f566f6c756d6520746f6f206c6f77000000000000000000000000000000000000604482015290519081900360640190fd5b6002543390600090610dc2906101009004600160a060020a0316611e28565b600354909150600090610ddd90600160a060020a0316611e28565b90506000610deb878361260d565b905080861115610e45576040805160e560020a62461bcd02815260206004820152600d60248201527f507269636520746f6f206c6f7700000000000000000000000000000000000000604482015290519081900360640190fd5b80831015610ec3576040805160e560020a62461bcd02815260206004820152603360248201527f526573657276657320746f20736d616c6c20746f20627579206261636b20746860448201527f697320616d6f756e74206f662073686172657300000000000000000000000000606482015290519081900360840190fd5b6003548790610edb90600160a060020a0316866109df565b1015610f57576040805160e560020a62461bcd02815260206004820152602160248201527f53656c6c657220646f65736e2774206861766520656e6f75676820736861726560448201527f7300000000000000000000000000000000000000000000000000000000000000606482015290519081900360840190fd5b6000610f80612710610f746005548561278e90919063ffffffff16565b9063ffffffff61282a16565b90506000610f94838363ffffffff61289916565b600354600254604080517f23b872dd000000000000000000000000000000000000000000000000000000008152600160a060020a038b81166004830152306024830152604482018f9052915194955092811693610100909204169183916323b872dd916064808201926020929091908290030181600087803b15801561101957600080fd5b505af115801561102d573d6000803e3d6000fd5b505050506040513d602081101561104357600080fd5b5051151561109b576040805160e560020a62461bcd02815260206004820152601560248201527f5368617265207472616e73666572206661696c65640000000000000000000000604482015290519081900360640190fd5b60048054604080517fa9059cbb000000000000000000000000000000000000000000000000000000008152600160a060020a039283169381019390935260248301879052519083169163a9059cbb9160448083019260209291908290030181600087803b15801561110b57600080fd5b505af115801561111f573d6000803e3d6000fd5b505050506040513d602081101561113557600080fd5b5051151561118d576040805160e560020a62461bcd02815260206004820152601960248201527f557361676520666565207472616e73666572206661696c656400000000000000604482015290519081900360640190fd5b80600160a060020a031663a9059cbb89856040518363ffffffff1660e060020a0281526004018083600160a060020a0316600160a060020a0316815260200182815260200192505050602060405180830381600087803b1580156111f057600080fd5b505af1158015611204573d6000803e3d6000fd5b505050506040513d602081101561121a57600080fd5b50511515611272576040805160e560020a62461bcd02815260206004820152601360248201527f58434846207061796d656e74206661696c656400000000000000000000000000604482015290519081900360640190fd5b600061128e6001611289898f63ffffffff6128f916565b61260d565b604080518e8152602081018990528082018390529051919250600160a060020a038b16917f019eed797248695407e185a0977fa0dba8bbaaba6c2f6f4a8bdf6fb32e62ba239181900360600190a25060019b9a5050505050505050505050565b6112f6611d7e565b151561133a576040805160e560020a62461bcd0281526020600482018190526024820152600080516020612d65833981519152604482015290519081900360640190fd5b600a8054821515610100810261ff00199092169190911790915560408051918252517f276bab63f4ee9561ffd6231af45bc72f9a40700500d94d1619d9811681fcc7149181900360200190a150565b600954600090819083116113ed5760006113bf846113b360016009546128f990919063ffffffff16565b9063ffffffff61289916565b905060006113d860016113b3848963ffffffff6128f916565b90506113e48282612956565b92505050611496565b600954611400848663ffffffff61289916565b1061141f57600754611418908563ffffffff61278e16565b9050611496565b61144660075461143a6009548661289990919063ffffffff16565b9063ffffffff61278e16565b905060006001905060006114756114686009548761289990919063ffffffff16565b879063ffffffff61289916565b90506114916114848383612956565b849063ffffffff6128f916565b925050505b9392505050565b6114a6336115c3565b1515611522576040805160e560020a62461bcd02815260206004820152603060248201527f506175736572526f6c653a2063616c6c657220646f6573206e6f74206861766560448201527f207468652050617573657220726f6c6500000000000000000000000000000000606482015290519081900360840190fd5b60025460ff16151561157e576040805160e560020a62461bcd02815260206004820152601460248201527f5061757361626c653a206e6f7420706175736564000000000000000000000000604482015290519081900360640190fd5b6002805460ff191690556040805133815290517f5db9ee0a495bf2e6ff9c91a7834c1ba4fdd244a5e8aa4e537bd38aeae4b073aa9181900360200190a1565b60075481565b6000610b2860018363ffffffff612a1216565b6115de611d7e565b1515611622576040805160e560020a62461bcd0281526020600482018190526024820152600080516020612d65833981519152604482015290519081900360640190fd5b6000811161167a576040805160e560020a62461bcd02815260206004820152601d60248201527f5072696365206d75737420626520706f736974697665206e756d626572000000604482015290519081900360640190fd5b61169181662386f26fc1000063ffffffff61278e16565b60078190556008541015611715576040805160e560020a62461bcd02815260206004820152602960248201527f4d696e696d756d2070726963652063616e6e6f7420657863656564206d61786960448201527f6d756d2070726963650000000000000000000000000000000000000000000000606482015290519081900360840190fd5b60075460408051918252517fca25b7923369016fc6d12ef51ac09f434487e9cfefe93165ef370e66c992e6089181900360200190a150565b611755611d7e565b1515611799576040805160e560020a62461bcd0281526020600482018190526024820152600080516020612d65833981519152604482015290519081900360640190fd5b600081116117f1576040805160e560020a62461bcd02815260206004820152601c60248201527f4d696e696d756d20766f6c756d652063616e2774206265207a65726f00000000604482015290519081900360640190fd5b60068190556040805182815290517f36d7484c55580431595134a4925d2918576089f48219c0329c1d7ae3a4c0eaf29181900360200190a150565b600354600160a060020a031681565b600a54610100900460ff1681565b60025460ff1690565b61185b33612aba565b565b611865611d7e565b15156118a9576040805160e560020a62461bcd0281526020600482018190526024820152600080516020612d65833981519152604482015290519081900360640190fd5b60008054604051600160a060020a03909116907f8be0079c531659141344cd1fd0a4f28419497f9722a3daafe3b4186f6b6457e0908390a36000805473ffffffffffffffffffffffffffffffffffffffff19169055565b611908611d7e565b151561194c576040805160e560020a62461bcd0281526020600482018190526024820152600080516020612d65833981519152604482015290519081900360640190fd5b600160a060020a03811615156119d2576040805160e560020a62461bcd02815260206004820152602160248201527f414c455120646f6573206e6f742072657369646520617420616464726573732060448201527f3000000000000000000000000000000000000000000000000000000000000000606482015290519081900360840190fd5b6004805473ffffffffffffffffffffffffffffffffffffffff1916600160a060020a03838116919091179182905560408051929091168252517f9ca365be1ea3478d012423d6e6b12dc3fca3b34a4b76190d037ef911a5a24c70916020908290030190a150565b60055481565b60095481565b611a4e336115c3565b1515611aca576040805160e560020a62461bcd02815260206004820152603060248201527f506175736572526f6c653a2063616c6c657220646f6573206e6f74206861766560448201527f207468652050617573657220726f6c6500000000000000000000000000000000606482015290519081900360840190fd5b611ad381612b02565b50565b611adf336115c3565b1515611b5b576040805160e560020a62461bcd02815260206004820152603060248201527f506175736572526f6c653a2063616c6c657220646f6573206e6f74206861766560448201527f207468652050617573657220726f6c6500000000000000000000000000000000606482015290519081900360840190fd5b60025460ff1615611bb6576040805160e560020a62461bcd02815260206004820152601060248201527f5061757361626c653a2070617573656400000000000000000000000000000000604482015290519081900360640190fd5b6002805460ff191660011790556040805133815290517f62e78cea01bee320cd4e420270b5ea74000d11b0c9f74754ebdbfc544b05a2589181900360200190a1565b611c00611d7e565b1515611c44576040805160e560020a62461bcd0281526020600482018190526024820152600080516020612d65833981519152604482015290519081900360640190fd5b60008111611c9c576040805160e560020a62461bcd02815260206004820152601d60248201527f5072696365206d75737420626520706f736974697665206e756d626572000000604482015290519081900360640190fd5b611cb381662386f26fc1000063ffffffff61278e16565b60088190556007541115611d37576040805160e560020a62461bcd02815260206004820152602960248201527f4d696e696d756d2070726963652063616e6e6f7420657863656564206d61786960448201527f6d756d2070726963650000000000000000000000000000000000000000000000606482015290519081900360840190fd5b60085460408051918252517f6f784568f7168c0b5af22435addde84e5e2a7fbdaa0a78be48496d5999ed50a49181900360200190a150565b600054600160a060020a031690565b600054600160a060020a0316331490565b611d97611d7e565b1515611ddb576040805160e560020a62461bcd0281526020600482018190526024820152600080516020612d65833981519152604482015290519081900360640190fd5b600a805482151560ff19909116811790915560408051918252517f18dafbe8c03cecc6e5669f0108cb5124d4b1054c8308ee058e8eb2f53e0b6a599181900360200190a150565b60085481565b604080517f70a0823100000000000000000000000000000000000000000000000000000000815230600482015290516000918391600160a060020a038316916370a08231916024808301926020929190829003018186803b158015611e8c57600080fd5b505afa158015611ea0573d6000803e3d6000fd5b505050506040513d6020811015611eb657600080fd5b50519392505050565b60025460009060ff1615611f1d576040805160e560020a62461bcd02815260206004820152601060248201527f5061757361626c653a2070617573656400000000000000000000000000000000604482015290519081900360640190fd5b600a5460ff161515611f79576040805160e560020a62461bcd02815260206004820152601b60248201527f427579696e672069732063757272656e74792064697361626c65640000000000604482015290519081900360640190fd5b600654821015611fd3576040805160e560020a62461bcd02815260206004820152600e60248201527f566f6c756d6520746f6f206c6f77000000000000000000000000000000000000604482015290519081900360640190fd5b6003543390600090611fed90600160a060020a0316611e28565b90506000611ffb8583611389565b905084821015612055576040805160e560020a62461bcd02815260206004820152601b60248201527f4e6f7420656e6f7567682073686172657320617661696c61626c650000000000604482015290519081900360640190fd5b6002548190612072906101009004600160a060020a0316856109df565b10156120ee576040805160e560020a62461bcd02815260206004820152602c60248201527f5061796d656e74206e6f7420617574686f72697a6564206f722066756e64732060448201527f696e73756666696369656e740000000000000000000000000000000000000000606482015290519081900360840190fd5b600061210b612710610f746005548561278e90919063ffffffff16565b9050600061211f838363ffffffff61289916565b60035460025460048054604080517f23b872dd000000000000000000000000000000000000000000000000000000008152600160a060020a038c8116948201949094529183166024830152604482018890525194955092811693610100909204169182916323b872dd916064808201926020929091908290030181600087803b1580156121ab57600080fd5b505af11580156121bf573d6000803e3d6000fd5b505050506040513d60208110156121d557600080fd5b5051151561222d576040805160e560020a62461bcd02815260206004820152601960248201527f557361676520666565207472616e73666572206661696c656400000000000000604482015290519081900360640190fd5b604080517f23b872dd000000000000000000000000000000000000000000000000000000008152600160a060020a038981166004830152306024830152604482018690529151918316916323b872dd916064808201926020929091908290030181600087803b15801561229f57600080fd5b505af11580156122b3573d6000803e3d6000fd5b505050506040513d60208110156122c957600080fd5b50511515612321576040805160e560020a62461bcd02815260206004820152601360248201527f58434846207061796d656e74206661696c656400000000000000000000000000604482015290519081900360640190fd5b81600160a060020a031663a9059cbb888b6040518363ffffffff1660e060020a0281526004018083600160a060020a0316600160a060020a0316815260200182815260200192505050602060405180830381600087803b15801561238457600080fd5b505af1158015612398573d6000803e3d6000fd5b505050506040513d60208110156123ae57600080fd5b50511515612406576040805160e560020a62461bcd02815260206004820152601560248201527f5368617265207472616e73666572206661696c65640000000000000000000000604482015290519081900360640190fd5b6000612422600161241d898d63ffffffff61289916565b611389565b604080518c8152602081018990528082018390529051919250600160a060020a038a16917f0ea2cc1a2a0fcfecef8b5ff9be41f8c0ca3770265a060b00de53118f88c91dfa9181900360600190a25060019998505050505050505050565b600061248a611d7e565b15156124ce576040805160e560020a62461bcd0281526020600482018190526024820152600080516020612d65833981519152604482015290519081900360640190fd5b604080517fa9059cbb000000000000000000000000000000000000000000000000000000008152600160a060020a038581166004830152602482018590529151869283169163a9059cbb9160448083019260209291908290030181600087803b15801561253a57600080fd5b505af115801561254e573d6000803e3d6000fd5b505050506040513d602081101561256457600080fd5b505115156125bc576040805160e560020a62461bcd02815260206004820152600f60248201527f5472616e73666572206661696c65640000000000000000000000000000000000604482015290519081900360640190fd5b60408051600160a060020a038781168252602082018690528251908716927f5018570dc9af04c274831bb515520e943bac23a9acee64ba9ae0bfe93d9acac0928290030190a2506001949350505050565b60006114968361241d848263ffffffff6128f916565b61262b611d7e565b151561266f576040805160e560020a62461bcd0281526020600482018190526024820152600080516020612d65833981519152604482015290519081900360640190fd5b611ad381612b4a565b60065481565b600a5460ff1681565b61268f611d7e565b15156126d3576040805160e560020a62461bcd0281526020600482018190526024820152600080516020612d65833981519152604482015290519081900360640190fd5b612710811115612753576040805160e560020a62461bcd02815260206004820152602760248201527f557361676520666565206d75737420626520676976656e20696e20626173697360448201527f20706f696e747300000000000000000000000000000000000000000000000000606482015290519081900360840190fd5b60058190556040805182815290517f84ab2654bf3c5a6e5bfe15d7c6ae2a6f9a10bd4b36c0b876762d4a8b432272969181900360200190a150565b600082151561279f57506000610b28565b8282028284828115156127ae57fe5b0414611496576040805160e560020a62461bcd02815260206004820152602160248201527f536166654d6174683a206d756c7469706c69636174696f6e206f766572666c6f60448201527f7700000000000000000000000000000000000000000000000000000000000000606482015290519081900360840190fd5b6000808211612883576040805160e560020a62461bcd02815260206004820152601a60248201527f536166654d6174683a206469766973696f6e206279207a65726f000000000000604482015290519081900360640190fd5b6000828481151561289057fe5b04949350505050565b6000828211156128f3576040805160e560020a62461bcd02815260206004820152601e60248201527f536166654d6174683a207375627472616374696f6e206f766572666c6f770000604482015290519081900360640190fd5b50900390565b600082820183811015611496576040805160e560020a62461bcd02815260206004820152601b60248201527f536166654d6174683a206164646974696f6e206f766572666c6f770000000000604482015290519081900360640190fd5b60008061298360075461143a6001612977888861289990919063ffffffff16565b9063ffffffff6128f916565b905060006129ba6002610f746129a5600160095461289990919063ffffffff16565b600754600854610f749163ffffffff61289916565b905060006129fc60026113b36129d6898063ffffffff61278e16565b6113b389816129ec8d600363ffffffff61278e16565b6129778d8063ffffffff61278e16565b9050610b2283612977848463ffffffff61278e16565b6000600160a060020a0382161515612a9a576040805160e560020a62461bcd02815260206004820152602260248201527f526f6c65733a206163636f756e7420697320746865207a65726f20616464726560448201527f7373000000000000000000000000000000000000000000000000000000000000606482015290519081900360840190fd5b50600160a060020a03166000908152602091909152604090205460ff1690565b612acb60018263ffffffff612c3816565b604051600160a060020a038216907fcd265ebaf09df2871cc7bd4133404a235ba12eff2041bb89d9c714a2621c7c7e90600090a250565b612b1360018263ffffffff612ce016565b604051600160a060020a038216907f6719d08c1888103bea251a4ed56406bd0c3e69723c8a1686e017e7bbe159b6f890600090a250565b600160a060020a0381161515612bd0576040805160e560020a62461bcd02815260206004820152602660248201527f4f776e61626c653a206e6577206f776e657220697320746865207a65726f206160448201527f6464726573730000000000000000000000000000000000000000000000000000606482015290519081900360840190fd5b60008054604051600160a060020a03808516939216917f8be0079c531659141344cd1fd0a4f28419497f9722a3daafe3b4186f6b6457e091a36000805473ffffffffffffffffffffffffffffffffffffffff1916600160a060020a0392909216919091179055565b612c428282612a12565b1515612cbe576040805160e560020a62461bcd02815260206004820152602160248201527f526f6c65733a206163636f756e7420646f6573206e6f74206861766520726f6c60448201527f6500000000000000000000000000000000000000000000000000000000000000606482015290519081900360840190fd5b600160a060020a0316600090815260209190915260409020805460ff19169055565b612cea8282612a12565b15612d3f576040805160e560020a62461bcd02815260206004820152601f60248201527f526f6c65733a206163636f756e7420616c72656164792068617320726f6c6500604482015290519081900360640190fd5b600160a060020a0316600090815260209190915260409020805460ff1916600117905556fe4f776e61626c653a2063616c6c6572206973206e6f7420746865206f776e6572a165627a7a72305820c522bd4826c52aeee9cef5a31c80acb8a1cdc9d64fe1918c36ef7662605ff7e50029",
  "source": "pragma solidity ^0.5.0;\n\nimport \"../node_modules/openzeppelin-solidity/contracts/ownership/Ownable.sol\";\nimport \"../node_modules/openzeppelin-solidity/contracts/math/SafeMath.sol\";\nimport \"../node_modules/openzeppelin-solidity/contracts/lifecycle/Pausable.sol\";\n\n/**\n * @title Test Share Dispenser\n * @author Pascal Marco Caversaccio, pascal@alethena.com\n * @dev This contract uses the open-zeppelin library.\n *\n * This smart contract is intended to serve as a tool that companies can use to provide liquidity in the context of \n * shares not traded on an exchange.\n *\n * The currency used for payment is the Crypto Franc XCHF (https://www.swisscryptotokens.ch/) which makes it possible\n * to quote share prices directly in Swiss Francs.\n *\n * A company can allocate a certain number of shares (and optionally also some XCHF) to the share dispenser \n * and defines a linear price dependency.\n **/\n\ninterface ERC20 {\n    function totalSupply() external view returns (uint256);\n    function transfer(address to, uint tokens) external returns (bool success);\n    function transferFrom(address from, address to, uint256 value) external returns (bool success);\n    function totalShares() external view returns (uint256);\n    function allowance(address owner, address spender) external view returns (uint256);\n    function balanceOf(address owner) external view returns (uint256 balance);\n}\n\ncontract ShareDispenser is Ownable, Pausable {\n    constructor(\n        address initialXCHFContractAddress, \n        address initialALEQContractAddress, \n        address initialusageFeeAddress\n        ) public {\n            \n        require(initialXCHFContractAddress != address(0), \"XCHF does not reside at address 0!\");\n        require(initialALEQContractAddress != address(0), \"ALEQ does not reside at address 0!\");\n        require(initialusageFeeAddress != address(0), \"Usage fee address cannot be 0!\");\n\n        XCHFContractAddress = initialXCHFContractAddress;\n        ALEQContractAddress = initialALEQContractAddress;\n        usageFeeAddress = initialusageFeeAddress;\n    }\n\n    /* \n     * Fallback function to prevent accidentally sending Ether to the contract\n     * It is still possible to force Ether into the contract as this cannot be prevented fully.\n     * Sending Ether to this contract does not create any problems for the contract, but the Ether will be lost.\n    */ \n\n    function () external payable {\n        revert(\"This contract does not accept Ether.\"); \n    }   \n\n    using SafeMath for uint256;\n\n    // Variables\n\n    address public XCHFContractAddress;     // Address where XCHF is deployed\n    address public ALEQContractAddress;     // Address where ALEQ is deployed\n    address public usageFeeAddress;         // Address where usage fee is collected\n\n    // Buy and sell always refer to the end-user view.\n    // 10000 basis points = 100%\n\n    uint256 public usageFeeBSP  = 0;       // In basis points. 0 = no usage fee\n    uint256 public minVolume = 20;          // Minimum number of shares to buy/sell\n\n    uint256 public minPriceInXCHF = 6*10**18;\n    uint256 public maxPriceInXCHF = 65*10**17;\n    uint256 public initialNumberOfShares = 2000;\n\n    bool public buyEnabled = true;\n    bool public sellEnabled = false;\n\n    // Events \n\n    event XCHFContractAddressSet(address newXCHFContractAddress);\n    event ALEQContractAddressSet(address newALEQContractAddress);\n    event UsageFeeAddressSet(address newUsageFeeAddress);\n\n    event SharesPurchased(address indexed buyer, uint256 amount, uint256 totalPrice, uint256 nextPrice);\n    event SharesSold(address indexed seller, uint256 amount, uint256 buyBackPrice, uint256 nextPrice);\n    \n    event TokensRetrieved(address contractAddress, address indexed to, uint256 amount);\n\n    event UsageFeeSet(uint256 usageFee);\n    event MinVolumeSet(uint256 minVolume);\n    event MinPriceSet(uint256 minPrice);\n    event MaxPriceSet(uint256 maxPrice);\n    event InitialNumberOfSharesSet(uint256 initialNumberOfShares);\n\n    event BuyStatusChanged(bool newStatus);\n    event SellStatusChanged(bool newStatus);\n    \n\n    // Function for buying shares\n\n    function buyShares(uint256 numberOfSharesToBuy) public whenNotPaused() returns (bool) {\n\n        // Check that buying is enabled\n        require(buyEnabled, \"Buying is currenty disabled\");\n        require(numberOfSharesToBuy >= minVolume, \"Volume too low\");\n\n        // Fetch the total price\n        address buyer = msg.sender;\n        uint256 sharesAvailable = getERC20Balance(ALEQContractAddress);\n        uint256 totalPrice = getCumulatedPrice(numberOfSharesToBuy, sharesAvailable);\n\n        // Check that there are enough shares\n        require(sharesAvailable >= numberOfSharesToBuy, \"Not enough shares available\");\n\n        //Check that XCHF balance is sufficient and allowance is set\n        require(getERC20Available(XCHFContractAddress, buyer) >= totalPrice, \"Payment not authorized or funds insufficient\");\n\n        // Compute usage fee and final payment amount\n        uint256 usageFee = totalPrice.mul(usageFeeBSP).div(10000);\n        uint256 paymentAmount = totalPrice.sub(usageFee);\n\n        // Instantiate contracts\n        ERC20 ALEQ = ERC20(ALEQContractAddress);\n        ERC20 XCHF = ERC20(XCHFContractAddress);\n\n        // Transfer usage fee and payment amount\n        require(XCHF.transferFrom(buyer, usageFeeAddress, usageFee), \"Usage fee transfer failed\");\n        require(XCHF.transferFrom(buyer, address(this), paymentAmount), \"XCHF payment failed\");\n\n        // Transfer the shares\n        require(ALEQ.transfer(buyer, numberOfSharesToBuy), \"Share transfer failed\");\n        uint256 nextPrice = getCumulatedPrice(1, sharesAvailable.sub(numberOfSharesToBuy));\n        emit SharesPurchased(buyer, numberOfSharesToBuy, totalPrice, nextPrice);\n        return true;\n    }\n\n    // Function for selling shares\n\n    function sellShares(uint256 numberOfSharesToSell, uint256 limitInXCHF) public whenNotPaused() returns (bool) {\n\n        // Check that selling is enabled\n        require(sellEnabled, \"Selling is currenty disabled\");\n        require(numberOfSharesToSell >= minVolume, \"Volume too low\");\n\n        // Fetch buyback price\n        address seller = msg.sender;\n        uint256 XCHFAvailable = getERC20Balance(XCHFContractAddress);\n        uint256 sharesAvailable = getERC20Balance(ALEQContractAddress);\n\n        uint256 buyBackPrice = getCumulatedBuyBackPrice(numberOfSharesToSell, sharesAvailable);\n        require(limitInXCHF <= buyBackPrice, \"Price too low\");\n\n        // Check that XCHF reserve is sufficient\n        require(XCHFAvailable >= buyBackPrice, \"Reserves to small to buy back this amount of shares\");\n\n        // Check that seller has sufficient shares and allowance is set\n        require(getERC20Available(ALEQContractAddress, seller) >= numberOfSharesToSell, \"Seller doesn't have enough shares\");\n\n        // Compute usage fee and final payment amount\n        uint256 usageFee = buyBackPrice.mul(usageFeeBSP).div(10000);\n        uint256 paymentAmount = buyBackPrice.sub(usageFee);\n\n        // Instantiate contracts\n        ERC20 ALEQ = ERC20(ALEQContractAddress);\n        ERC20 XCHF = ERC20(XCHFContractAddress);\n\n        // Transfer the shares\n        require(ALEQ.transferFrom(seller, address(this), numberOfSharesToSell), \"Share transfer failed\");\n\n        // Transfer usage fee and payment amount\n        require(XCHF.transfer(usageFeeAddress, usageFee), \"Usage fee transfer failed\");\n        require(XCHF.transfer(seller, paymentAmount), \"XCHF payment failed\");\n        uint256 nextPrice = getCumulatedBuyBackPrice(1, sharesAvailable.add(numberOfSharesToSell));\n        emit SharesSold(seller, numberOfSharesToSell, buyBackPrice, nextPrice);\n        return true;\n    }\n\n    // Getters for ERC20 balances (for convenience)\n\n    function getERC20Balance(address contractAddress) public view returns (uint256) {\n        ERC20 contractInstance = ERC20(contractAddress);\n        return contractInstance.balanceOf(address(this));\n    }\n\n    function getERC20Available(address contractAddress, address owner) public view returns (uint256) {\n        ERC20 contractInstance = ERC20(contractAddress);\n        uint256 allowed = contractInstance.allowance(owner, address(this));\n        uint256 bal = contractInstance.balanceOf(owner);\n        return (allowed <= bal) ? allowed : bal;\n    }\n\n    // Price getters\n\n    function getCumulatedPrice(uint256 amount, uint256 supply) public view returns (uint256){\n        uint256 cumulatedPrice = 0;\n        if (supply <= initialNumberOfShares) {\n            uint256 first = initialNumberOfShares.add(1).sub(supply);\n            uint256 last = first.add(amount).sub(1);\n            cumulatedPrice = helper(first, last);\n        }\n\n        else if (supply.sub(amount) >= initialNumberOfShares) {\n            cumulatedPrice = minPriceInXCHF.mul(amount);\n        }\n\n        else {\n            cumulatedPrice = supply.sub(initialNumberOfShares).mul(minPriceInXCHF);\n            uint256 first = 1;\n            uint256 last = amount.sub(supply.sub(initialNumberOfShares));\n            cumulatedPrice = cumulatedPrice.add(helper(first,last));\n        }\n        \n        return cumulatedPrice;\n    }\n\n    function getCumulatedBuyBackPrice(uint256 amount, uint256 supply) public view returns (uint256){\n        return getCumulatedPrice(amount, supply.add(amount)); // For symmetry reasons\n    }\n\n    // Function to retrieve ALEQ or XCHF from contract\n    // This can also be used to retrieve any other ERC-20 token sent to the smart contract by accident\n\n    function retrieveERC20(address contractAddress, address to, uint256 amount) public onlyOwner() returns(bool) {\n        ERC20 contractInstance = ERC20(contractAddress);\n        require(contractInstance.transfer(to, amount), \"Transfer failed\");\n        emit TokensRetrieved(contractAddress, to, amount);\n        return true;\n    }\n\n    // Setters for addresses\n\n    function setXCHFContractAddress(address newXCHFContractAddress) public onlyOwner() {\n        require(newXCHFContractAddress != address(0), \"XCHF does not reside at address 0\");\n        XCHFContractAddress = newXCHFContractAddress;\n        emit XCHFContractAddressSet(XCHFContractAddress);\n    }\n\n    function setALEQContractAddress(address newALEQContractAddress) public onlyOwner() {\n        require(newALEQContractAddress != address(0), \"ALEQ does not reside at address 0\");\n        ALEQContractAddress = newALEQContractAddress;\n        emit ALEQContractAddressSet(ALEQContractAddress);\n    }\n\n    function setUsageFeeAddress(address newUsageFeeAddress) public onlyOwner() {\n        require(newUsageFeeAddress != address(0), \"ALEQ does not reside at address 0\");\n        usageFeeAddress = newUsageFeeAddress;\n        emit UsageFeeAddressSet(usageFeeAddress);\n    }\n\n    // Setters for constants\n    \n    function setUsageFee(uint256 newUsageFeeInBSP) public onlyOwner() {\n        require(newUsageFeeInBSP <= 10000, \"Usage fee must be given in basis points\");\n        usageFeeBSP = newUsageFeeInBSP;\n        emit UsageFeeSet(usageFeeBSP);\n    }\n\n    function setMinVolume(uint256 newMinVolume) public onlyOwner() {\n        require(newMinVolume > 0, \"Minimum volume can't be zero\");\n        minVolume = newMinVolume;\n        emit MinVolumeSet(minVolume);\n    }\n\n    function setminPriceInXCHF(uint256 newMinPriceInRappen) public onlyOwner() {\n        require(newMinPriceInRappen > 0, \"Price must be positive number\");\n        minPriceInXCHF = newMinPriceInRappen.mul(10**16);\n        require(minPriceInXCHF <= maxPriceInXCHF, \"Minimum price cannot exceed maximum price\");\n        emit MinPriceSet(minPriceInXCHF);\n    }\n\n    function setmaxPriceInXCHF(uint256 newMaxPriceInRappen) public onlyOwner() {\n        require(newMaxPriceInRappen > 0, \"Price must be positive number\");\n        maxPriceInXCHF = newMaxPriceInRappen.mul(10**16);\n        require(minPriceInXCHF <= maxPriceInXCHF, \"Minimum price cannot exceed maximum price\");\n        emit MaxPriceSet(maxPriceInXCHF);\n    }\n\n    function setInitialNumberOfShares(uint256 newInitialNumberOfShares) public onlyOwner() {\n        require(newInitialNumberOfShares > 0, \"Initial number of shares must be positive\");\n        initialNumberOfShares = newInitialNumberOfShares;\n        emit InitialNumberOfSharesSet(initialNumberOfShares);\n    }\n\n    // Enable buy and sell separately\n\n    function buyStatus(bool newStatus) public onlyOwner() {\n        buyEnabled = newStatus;\n        emit BuyStatusChanged(newStatus);\n    }\n\n    function sellStatus(bool newStatus) public onlyOwner() {\n        sellEnabled = newStatus;\n        emit SellStatusChanged(newStatus);\n    }\n\n    // Helper functions\n\n    function helper(uint256 first, uint256 last) internal view returns (uint256) {\n        uint256 tempa = last.sub(first).add(1).mul(minPriceInXCHF);                                   // (l-m+1)*p_min\n        uint256 tempb = maxPriceInXCHF.sub(minPriceInXCHF).div(initialNumberOfShares.sub(1)).div(2);  // (p_max-p_min)/(2(N-1))\n        uint256 tempc = last.mul(last).add(first.mul(3)).sub(last).sub(first.mul(first)).sub(2);      // l*l+3*m-l-m*m-2)\n        return tempb.mul(tempc).add(tempa);\n    }\n\n}",
  "sourcePath": "C:/dev/test-share-dispenser/contracts/ShareDispenser.sol",
  "compiler": {
    "name": "solc",
    "version": "0.5.0+commit.1d4f565a.Emscripten.clang"
  },
  "schemaVersion": "3.0.9",
  "updatedAt": "2019-07-09T09:33:40.276Z",
  "devdoc": {
    "methods": {
      "isOwner()": {
        "details": "Returns true if the caller is the current owner."
      },
      "owner()": {
        "details": "Returns the address of the current owner."
      },
      "pause()": {
        "details": "Called by a pauser to pause, triggers stopped state."
      },
      "paused()": {
        "details": "Returns true if the contract is paused, and false otherwise."
      },
      "renounceOwnership()": {
        "details": "Leaves the contract without owner. It will not be possible to call `onlyOwner` functions anymore. Can only be called by the current owner.     * > Note: Renouncing ownership will leave the contract without an owner, thereby removing any functionality that is only available to the owner."
      },
      "transferOwnership(address)": {
        "details": "Transfers ownership of the contract to a new account (`newOwner`). Can only be called by the current owner."
      },
      "unpause()": {
        "details": "Called by a pauser to unpause, returns to normal state."
      }
    }
  },
  "userdoc": {
    "methods": {}
  }
}