{
  "contractName": "XCHF",
  "abi": [
    {
      "constant": false,
      "inputs": [
        {
          "name": "_toContract",
          "type": "address"
        }
      ],
      "name": "startMigrateToContract",
      "outputs": [],
      "payable": false,
      "stateMutability": "nonpayable",
      "type": "function"
    },
    {
      "constant": true,
      "inputs": [],
      "name": "name",
      "outputs": [
        {
          "name": "",
          "type": "string"
        }
      ],
      "payable": false,
      "stateMutability": "view",
      "type": "function"
    },
    {
      "constant": true,
      "inputs": [],
      "name": "minter",
      "outputs": [
        {
          "name": "",
          "type": "address"
        }
      ],
      "payable": false,
      "stateMutability": "view",
      "type": "function"
    },
    {
      "constant": false,
      "inputs": [
        {
          "name": "_spender",
          "type": "address"
        },
        {
          "name": "_value",
          "type": "uint256"
        }
      ],
      "name": "approve",
      "outputs": [
        {
          "name": "success",
          "type": "bool"
        }
      ],
      "payable": false,
      "stateMutability": "nonpayable",
      "type": "function"
    },
    {
      "constant": true,
      "inputs": [],
      "name": "totalSupply",
      "outputs": [
        {
          "name": "supply",
          "type": "uint256"
        }
      ],
      "payable": false,
      "stateMutability": "view",
      "type": "function"
    },
    {
      "constant": true,
      "inputs": [],
      "name": "dustAmount",
      "outputs": [
        {
          "name": "",
          "type": "uint256"
        }
      ],
      "payable": false,
      "stateMutability": "view",
      "type": "function"
    },
    {
      "constant": false,
      "inputs": [
        {
          "name": "_from",
          "type": "address"
        },
        {
          "name": "_to",
          "type": "address"
        },
        {
          "name": "_value",
          "type": "uint256"
        }
      ],
      "name": "transferFrom",
      "outputs": [
        {
          "name": "success",
          "type": "bool"
        }
      ],
      "payable": false,
      "stateMutability": "nonpayable",
      "type": "function"
    },
    {
      "constant": true,
      "inputs": [],
      "name": "currentTermEndDate",
      "outputs": [
        {
          "name": "",
          "type": "uint256"
        }
      ],
      "payable": false,
      "stateMutability": "view",
      "type": "function"
    },
    {
      "constant": false,
      "inputs": [
        {
          "name": "_newOperator",
          "type": "address"
        }
      ],
      "name": "transferOperator",
      "outputs": [],
      "payable": false,
      "stateMutability": "nonpayable",
      "type": "function"
    },
    {
      "constant": true,
      "inputs": [],
      "name": "decimals",
      "outputs": [
        {
          "name": "",
          "type": "uint256"
        }
      ],
      "payable": false,
      "stateMutability": "view",
      "type": "function"
    },
    {
      "constant": false,
      "inputs": [],
      "name": "unpause",
      "outputs": [],
      "payable": false,
      "stateMutability": "nonpayable",
      "type": "function"
    },
    {
      "constant": false,
      "inputs": [
        {
          "name": "_to",
          "type": "address"
        },
        {
          "name": "_value",
          "type": "uint256"
        }
      ],
      "name": "mint",
      "outputs": [],
      "payable": false,
      "stateMutability": "nonpayable",
      "type": "function"
    },
    {
      "constant": false,
      "inputs": [
        {
          "name": "_value",
          "type": "uint256"
        }
      ],
      "name": "burn",
      "outputs": [],
      "payable": false,
      "stateMutability": "nonpayable",
      "type": "function"
    },
    {
      "constant": true,
      "inputs": [],
      "name": "version",
      "outputs": [
        {
          "name": "",
          "type": "string"
        }
      ],
      "payable": false,
      "stateMutability": "view",
      "type": "function"
    },
    {
      "constant": true,
      "inputs": [],
      "name": "operator",
      "outputs": [
        {
          "name": "",
          "type": "address"
        }
      ],
      "payable": false,
      "stateMutability": "view",
      "type": "function"
    },
    {
      "constant": true,
      "inputs": [],
      "name": "paused",
      "outputs": [
        {
          "name": "",
          "type": "bool"
        }
      ],
      "payable": false,
      "stateMutability": "view",
      "type": "function"
    },
    {
      "constant": true,
      "inputs": [],
      "name": "currentFullName",
      "outputs": [
        {
          "name": "",
          "type": "string"
        }
      ],
      "payable": false,
      "stateMutability": "view",
      "type": "function"
    },
    {
      "constant": true,
      "inputs": [],
      "name": "announcedTerms",
      "outputs": [
        {
          "name": "",
          "type": "address"
        }
      ],
      "payable": false,
      "stateMutability": "view",
      "type": "function"
    },
    {
      "constant": false,
      "inputs": [],
      "name": "acceptOwnership",
      "outputs": [],
      "payable": false,
      "stateMutability": "nonpayable",
      "type": "function"
    },
    {
      "constant": false,
      "inputs": [],
      "name": "pause",
      "outputs": [],
      "payable": false,
      "stateMutability": "nonpayable",
      "type": "function"
    },
    {
      "constant": true,
      "inputs": [],
      "name": "migrationFromContract",
      "outputs": [
        {
          "name": "",
          "type": "address"
        }
      ],
      "payable": false,
      "stateMutability": "view",
      "type": "function"
    },
    {
      "constant": true,
      "inputs": [],
      "name": "owner",
      "outputs": [
        {
          "name": "",
          "type": "address"
        }
      ],
      "payable": false,
      "stateMutability": "view",
      "type": "function"
    },
    {
      "constant": true,
      "inputs": [],
      "name": "SCALEFACTOR",
      "outputs": [
        {
          "name": "",
          "type": "uint256"
        }
      ],
      "payable": false,
      "stateMutability": "view",
      "type": "function"
    },
    {
      "constant": true,
      "inputs": [],
      "name": "symbol",
      "outputs": [
        {
          "name": "",
          "type": "string"
        }
      ],
      "payable": false,
      "stateMutability": "view",
      "type": "function"
    },
    {
      "constant": true,
      "inputs": [],
      "name": "announcedTermEndDate",
      "outputs": [
        {
          "name": "",
          "type": "uint256"
        }
      ],
      "payable": false,
      "stateMutability": "view",
      "type": "function"
    },
    {
      "constant": true,
      "inputs": [],
      "name": "getCurrentCompoundingLevel",
      "outputs": [
        {
          "name": "",
          "type": "uint256"
        }
      ],
      "payable": false,
      "stateMutability": "view",
      "type": "function"
    },
    {
      "constant": false,
      "inputs": [
        {
          "name": "_to",
          "type": "address"
        },
        {
          "name": "_value",
          "type": "uint256"
        }
      ],
      "name": "transfer",
      "outputs": [
        {
          "name": "success",
          "type": "bool"
        }
      ],
      "payable": false,
      "stateMutability": "nonpayable",
      "type": "function"
    },
    {
      "constant": true,
      "inputs": [],
      "name": "announcedFullName",
      "outputs": [
        {
          "name": "",
          "type": "string"
        }
      ],
      "payable": false,
      "stateMutability": "view",
      "type": "function"
    },
    {
      "constant": true,
      "inputs": [],
      "name": "currentMaturityDate",
      "outputs": [
        {
          "name": "",
          "type": "uint256"
        }
      ],
      "payable": false,
      "stateMutability": "view",
      "type": "function"
    },
    {
      "constant": true,
      "inputs": [],
      "name": "newOwner",
      "outputs": [
        {
          "name": "",
          "type": "address"
        }
      ],
      "payable": false,
      "stateMutability": "view",
      "type": "function"
    },
    {
      "constant": false,
      "inputs": [
        {
          "name": "_fromConstract",
          "type": "address"
        }
      ],
      "name": "startMigrateFromContract",
      "outputs": [],
      "payable": false,
      "stateMutability": "nonpayable",
      "type": "function"
    },
    {
      "constant": true,
      "inputs": [],
      "name": "currentTerms",
      "outputs": [
        {
          "name": "",
          "type": "address"
        }
      ],
      "payable": false,
      "stateMutability": "view",
      "type": "function"
    },
    {
      "constant": true,
      "inputs": [
        {
          "name": "_owner",
          "type": "address"
        },
        {
          "name": "_spender",
          "type": "address"
        }
      ],
      "name": "allowance",
      "outputs": [
        {
          "name": "",
          "type": "uint256"
        }
      ],
      "payable": false,
      "stateMutability": "view",
      "type": "function"
    },
    {
      "constant": true,
      "inputs": [],
      "name": "isMigrationAgent",
      "outputs": [
        {
          "name": "",
          "type": "bool"
        }
      ],
      "payable": false,
      "stateMutability": "pure",
      "type": "function"
    },
    {
      "constant": true,
      "inputs": [],
      "name": "announcedMaturityDate",
      "outputs": [
        {
          "name": "",
          "type": "uint256"
        }
      ],
      "payable": false,
      "stateMutability": "view",
      "type": "function"
    },
    {
      "constant": true,
      "inputs": [
        {
          "name": "",
          "type": "uint256"
        }
      ],
      "name": "getCompoundingLevelDate",
      "outputs": [
        {
          "name": "",
          "type": "uint256"
        }
      ],
      "payable": false,
      "stateMutability": "view",
      "type": "function"
    },
    {
      "constant": true,
      "inputs": [],
      "name": "migrationToContract",
      "outputs": [
        {
          "name": "",
          "type": "address"
        }
      ],
      "payable": false,
      "stateMutability": "view",
      "type": "function"
    },
    {
      "constant": false,
      "inputs": [
        {
          "name": "_newOwner",
          "type": "address"
        }
      ],
      "name": "transferOwnership",
      "outputs": [],
      "payable": false,
      "stateMutability": "nonpayable",
      "type": "function"
    },
    {
      "constant": false,
      "inputs": [
        {
          "name": "_newMinter",
          "type": "address"
        }
      ],
      "name": "transferMinter",
      "outputs": [],
      "payable": false,
      "stateMutability": "nonpayable",
      "type": "function"
    },
    {
      "inputs": [
        {
          "name": "_initialFullName",
          "type": "string"
        },
        {
          "name": "_dustAmount",
          "type": "uint256"
        }
      ],
      "payable": false,
      "stateMutability": "nonpayable",
      "type": "constructor"
    },
    {
      "anonymous": false,
      "inputs": [
        {
          "indexed": false,
          "name": "newName",
          "type": "string"
        },
        {
          "indexed": true,
          "name": "newTerms",
          "type": "address"
        },
        {
          "indexed": true,
          "name": "newMaturityDate",
          "type": "uint256"
        },
        {
          "indexed": true,
          "name": "newTermEndDate",
          "type": "uint256"
        }
      ],
      "name": "AnnounceRollover",
      "type": "event"
    },
    {
      "anonymous": false,
      "inputs": [
        {
          "indexed": true,
          "name": "from",
          "type": "address"
        },
        {
          "indexed": true,
          "name": "to",
          "type": "address"
        }
      ],
      "name": "TransferOperator",
      "type": "event"
    },
    {
      "anonymous": false,
      "inputs": [
        {
          "indexed": true,
          "name": "fromConstract",
          "type": "address"
        },
        {
          "indexed": true,
          "name": "toContract",
          "type": "address"
        }
      ],
      "name": "StartMigrateToContract",
      "type": "event"
    },
    {
      "anonymous": false,
      "inputs": [
        {
          "indexed": true,
          "name": "fromConstract",
          "type": "address"
        },
        {
          "indexed": true,
          "name": "toContract",
          "type": "address"
        }
      ],
      "name": "StartMigrateFromContract",
      "type": "event"
    },
    {
      "anonymous": false,
      "inputs": [
        {
          "indexed": true,
          "name": "owner",
          "type": "address"
        },
        {
          "indexed": true,
          "name": "_contract",
          "type": "address"
        },
        {
          "indexed": false,
          "name": "value",
          "type": "uint256"
        }
      ],
      "name": "MigratedTo",
      "type": "event"
    },
    {
      "anonymous": false,
      "inputs": [
        {
          "indexed": true,
          "name": "owner",
          "type": "address"
        },
        {
          "indexed": true,
          "name": "_contract",
          "type": "address"
        },
        {
          "indexed": false,
          "name": "value",
          "type": "uint256"
        }
      ],
      "name": "MigratedFrom",
      "type": "event"
    },
    {
      "anonymous": false,
      "inputs": [
        {
          "indexed": true,
          "name": "from",
          "type": "address"
        },
        {
          "indexed": true,
          "name": "to",
          "type": "address"
        }
      ],
      "name": "TransferMinter",
      "type": "event"
    },
    {
      "anonymous": false,
      "inputs": [],
      "name": "Pause",
      "type": "event"
    },
    {
      "anonymous": false,
      "inputs": [],
      "name": "Unpause",
      "type": "event"
    },
    {
      "anonymous": false,
      "inputs": [
        {
          "indexed": true,
          "name": "_from",
          "type": "address"
        },
        {
          "indexed": true,
          "name": "_to",
          "type": "address"
        },
        {
          "indexed": false,
          "name": "_value",
          "type": "uint256"
        }
      ],
      "name": "Transfer",
      "type": "event"
    },
    {
      "anonymous": false,
      "inputs": [
        {
          "indexed": true,
          "name": "_owner",
          "type": "address"
        },
        {
          "indexed": true,
          "name": "_spender",
          "type": "address"
        },
        {
          "indexed": false,
          "name": "_value",
          "type": "uint256"
        }
      ],
      "name": "Approval",
      "type": "event"
    },
    {
      "anonymous": false,
      "inputs": [
        {
          "indexed": true,
          "name": "previousOwner",
          "type": "address"
        },
        {
          "indexed": true,
          "name": "newOwner",
          "type": "address"
        }
      ],
      "name": "OwnershipTransferred",
      "type": "event"
    },
    {
      "constant": false,
      "inputs": [
        {
          "name": "_newName",
          "type": "string"
        },
        {
          "name": "_newTerms",
          "type": "address"
        },
        {
          "name": "_newMaturityDate",
          "type": "uint256"
        },
        {
          "name": "_newTermEndDate",
          "type": "uint256"
        }
      ],
      "name": "announceRollover",
      "outputs": [],
      "payable": false,
      "stateMutability": "nonpayable",
      "type": "function"
    },
    {
      "constant": false,
      "inputs": [
        {
          "name": "_owner",
          "type": "address"
        }
      ],
      "name": "collectInterest",
      "outputs": [],
      "payable": false,
      "stateMutability": "nonpayable",
      "type": "function"
    },
    {
      "constant": false,
      "inputs": [
        {
          "name": "_from",
          "type": "address"
        },
        {
          "name": "_value",
          "type": "uint256"
        }
      ],
      "name": "migrateFrom",
      "outputs": [
        {
          "name": "",
          "type": "bool"
        }
      ],
      "payable": false,
      "stateMutability": "nonpayable",
      "type": "function"
    },
    {
      "constant": false,
      "inputs": [],
      "name": "migrate",
      "outputs": [],
      "payable": false,
      "stateMutability": "nonpayable",
      "type": "function"
    },
    {
      "constant": false,
      "inputs": [
        {
          "name": "_tokenaddress",
          "type": "address"
        },
        {
          "name": "_to",
          "type": "address"
        }
      ],
      "name": "refundForeignTokens",
      "outputs": [],
      "payable": false,
      "stateMutability": "nonpayable",
      "type": "function"
    },
    {
      "constant": true,
      "inputs": [],
      "name": "getFullName",
      "outputs": [
        {
          "name": "",
          "type": "string"
        }
      ],
      "payable": false,
      "stateMutability": "view",
      "type": "function"
    },
    {
      "constant": true,
      "inputs": [
        {
          "name": "_owner",
          "type": "address"
        }
      ],
      "name": "getCompoundingLevel",
      "outputs": [
        {
          "name": "",
          "type": "uint256"
        }
      ],
      "payable": false,
      "stateMutability": "view",
      "type": "function"
    },
    {
      "constant": true,
      "inputs": [
        {
          "name": "_owner",
          "type": "address"
        }
      ],
      "name": "balanceOf",
      "outputs": [
        {
          "name": "",
          "type": "uint256"
        }
      ],
      "payable": false,
      "stateMutability": "view",
      "type": "function"
    },
    {
      "constant": true,
      "inputs": [
        {
          "name": "_owner",
          "type": "address"
        },
        {
          "name": "_date",
          "type": "uint256"
        }
      ],
      "name": "getAdjustedValueDate",
      "outputs": [
        {
          "name": "",
          "type": "uint256"
        }
      ],
      "payable": false,
      "stateMutability": "view",
      "type": "function"
    }
  ],
  "bytecode": "0x60806040526004805460ff191690553480156200001b57600080fd5b5060405162002e0738038062002e07833981018060405260408110156200004157600080fd5b8101908080516401000000008111156200005a57600080fd5b820160208101848111156200006e57600080fd5b81516401000000008111828201871017156200008957600080fd5b50506020918201516000805433600160a060020a031991821681179092556004805461010060a860020a031916610100840217905560098054909116909117905581519194509250620000e391600b91908501906200012f565b508151620000f990600c9060208501906200012f565b50600a55506011805430600160a060020a0319918216811790925560128054909116909117905542600e819055601055620001d4565b828054600181600116156101000203166002900490600052602060002090601f016020900481019282601f106200017257805160ff1916838001178555620001a2565b82800160010185558215620001a2579182015b82811115620001a257825182559160200191906001019062000185565b50620001b0929150620001b4565b5090565b620001d191905b80821115620001b05760008155600101620001bb565b90565b612c2380620001e46000396000f3fe60806040526004361061022b5763ffffffff60e060020a6000350416620b6425811461023057806306fdde031461026557806307546172146102ef578063095ea7b31461032057806318160ddd1461036d578063210189681461039457806323b872dd146103a957806325b2d9ce146103ec57806329605e7714610401578063313ce567146104345780633f4ba83a1461044957806340c10f191461045e57806342966c68146104975780635391f98b146104c157806354fd4d50146104fa578063570ca7351461050f5780635c975abb1461052457806361c9d81c146105395780636f2d4a951461056c57806370a082311461059f57806372e2556a146105d257806377ce9c90146105e757806379ba5097146105fc5780637a3130e3146106115780638456cb591461064a5780638c1601861461065f5780638d0e2909146106745780638da5cb5b146106895780638f803d331461069e5780638fd3ab80146106d95780639395b0bd146106ee57806395d89b411461070357806398a9d9d214610718578063a1d1fe5d1461072d578063a9059cbb14610742578063b132677a1461077b578063b5e1083b14610790578063bc762b62146107a5578063d4ee1d901461086c578063d66ef1b414610881578063db692109146108b4578063dd62ed3e146108c9578063df4bcf5814610904578063dfc45b9814610919578063e7f0edca1461092e578063ee5554d314610958578063f2fde38b1461096d578063fe99ad5a146109a0575b600080fd5b34801561023c57600080fd5b506102636004803603602081101561025357600080fd5b5035600160a060020a03166109d3565b005b34801561027157600080fd5b5061027a610b53565b6040805160208082528351818301528351919283929083019185019080838360005b838110156102b457818101518382015260200161029c565b50505050905090810190601f1680156102e15780820380516001836020036101000a031916815260200191505b509250505060405180910390f35b3480156102fb57600080fd5b50610304610b8a565b60408051600160a060020a039092168252519081900360200190f35b34801561032c57600080fd5b506103596004803603604081101561034357600080fd5b50600160a060020a038135169060200135610b9e565b604080519115158252519081900360200190f35b34801561037957600080fd5b50610382610bfd565b60408051918252519081900360200190f35b3480156103a057600080fd5b50610382610c1c565b3480156103b557600080fd5b50610359600480360360608110156103cc57600080fd5b50600160a060020a03813581169160208101359091169060400135610c22565b3480156103f857600080fd5b50610382610c81565b34801561040d57600080fd5b506102636004803603602081101561042457600080fd5b5035600160a060020a0316610c87565b34801561044057600080fd5b50610382610d77565b34801561045557600080fd5b50610263610d7c565b34801561046a57600080fd5b506102636004803603604081101561048157600080fd5b50600160a060020a038135169060200135610e5d565b3480156104a357600080fd5b50610263600480360360208110156104ba57600080fd5b5035610ede565b3480156104cd57600080fd5b50610382600480360360408110156104e457600080fd5b50600160a060020a038135169060200135610f43565b34801561050657600080fd5b5061027a61103e565b34801561051b57600080fd5b50610304611075565b34801561053057600080fd5b50610359611084565b34801561054557600080fd5b506102636004803603602081101561055c57600080fd5b5035600160a060020a031661108d565b34801561057857600080fd5b506103826004803603602081101561058f57600080fd5b5035600160a060020a031661115a565b3480156105ab57600080fd5b50610382600480360360208110156105c257600080fd5b5035600160a060020a0316611193565b3480156105de57600080fd5b5061027a61119e565b3480156105f357600080fd5b5061030461122c565b34801561060857600080fd5b5061026361123b565b34801561061d57600080fd5b506103596004803603604081101561063457600080fd5b50600160a060020a0381351690602001356112fa565b34801561065657600080fd5b506102636113c2565b34801561066b57600080fd5b5061027a611493565b34801561068057600080fd5b5061030461158c565b34801561069557600080fd5b5061030461159b565b3480156106aa57600080fd5b50610263600480360360408110156106c157600080fd5b50600160a060020a03813581169160200135166115aa565b3480156106e557600080fd5b50610263611771565b3480156106fa57600080fd5b506103826119d1565b34801561070f57600080fd5b5061027a6119dd565b34801561072457600080fd5b50610382611a14565b34801561073957600080fd5b50610382611a1a565b34801561074e57600080fd5b506103596004803603604081101561076557600080fd5b50600160a060020a038135169060200135611a26565b34801561078757600080fd5b5061027a611a7c565b34801561079c57600080fd5b50610382611ad7565b3480156107b157600080fd5b50610263600480360360808110156107c857600080fd5b8101906020810181356401000000008111156107e357600080fd5b8201836020820111156107f557600080fd5b8035906020019184600183028401116401000000008311171561081757600080fd5b91908080601f01602080910402602001604051908101604052809392919081815260200183838082843760009201919091525092955050600160a060020a038335169350505060208101359060400135611add565b34801561087857600080fd5b50610304611fbb565b34801561088d57600080fd5b50610263600480360360208110156108a457600080fd5b5035600160a060020a0316611fca565b3480156108c057600080fd5b5061030461214a565b3480156108d557600080fd5b50610382600480360360408110156108ec57600080fd5b50600160a060020a0381358116916020013516612159565b34801561091057600080fd5b50610359612184565b34801561092557600080fd5b50610382612189565b34801561093a57600080fd5b506103826004803603602081101561095157600080fd5b503561218f565b34801561096457600080fd5b5061030461219c565b34801561097957600080fd5b506102636004803603602081101561099057600080fd5b5035600160a060020a03166121ab565b3480156109ac57600080fd5b50610263600480360360208110156109c357600080fd5b5035600160a060020a031661226d565b600054600160a060020a03163314610a23576040805160e560020a62461bcd02815260206004820152600a6024820152600080516020612bb8833981519152604482015290519081900360640190fd5b60078054600160a060020a031916600160a060020a038381169190911791829055604080517fdf4bcf580000000000000000000000000000000000000000000000000000000081529051929091169163df4bcf5891600480820192602092909190829003018186803b158015610a9857600080fd5b505afa158015610aac573d6000803e3d6000fd5b505050506040513d6020811015610ac257600080fd5b50511515610b1a576040805160e560020a62461bcd02815260206004820152601960248201527f6e6f742061206d696772617461626c6520636f6e747261637400000000000000604482015290519081900360640190fd5b604051600160a060020a0382169030907fcec25bfd2f5c0c367bf2d8d279728841ec464c722dfa79bcedd028c24a253b9690600090a350565b60408051808201909152600b81527f43727970746f4672616e63000000000000000000000000000000000000000000602082015281565b6004546101009004600160a060020a031681565b60045460009060ff1615610bea576040805160e560020a62461bcd0281526020600482015260146024820152600080516020612b98833981519152604482015290519081900360640190fd5b610bf48383612374565b90505b92915050565b6000610c1660065460055461242d90919063ffffffff16565b90505b90565b600a5481565b60045460009060ff1615610c6e576040805160e560020a62461bcd0281526020600482015260146024820152600080516020612b98833981519152604482015290519081900360640190fd5b610c7984848461243f565b949350505050565b600f5481565b80600160a060020a0381161515610cd6576040805160e560020a62461bcd02815260206004820152600f6024820152600080516020612bd8833981519152604482015290519081900360640190fd5b600054600160a060020a03163314610d26576040805160e560020a62461bcd02815260206004820152600a6024820152600080516020612bb8833981519152604482015290519081900360640190fd5b60098054600160a060020a031916600160a060020a0384811691821792839055604051919216907fa3fa0a434ea340b210144ceac453176b4e181b4467d8692e7144a6b0ab4ac07690600090a35050565b601281565b600054600160a060020a03163314610dcc576040805160e560020a62461bcd02815260206004820152600a6024820152600080516020612bb8833981519152604482015290519081900360640190fd5b60045460ff161515610e28576040805160e560020a62461bcd02815260206004820152601060248201527f6f6e6c79207768656e2070617573656400000000000000000000000000000000604482015290519081900360640190fd5b6004805460ff191690556040517f7805862f689e2f13df9f062ff482ad3ad112aca9e0847911ed832e158c525b3390600090a1565b81600160a060020a0381161515610eac576040805160e560020a62461bcd02815260206004820152600f6024820152600080516020612bd8833981519152604482015290519081900360640190fd5b6004546101009004600160a060020a03163314610ec557fe5b610ecf838361251d565b610ed983836125b1565b505050565b60045460ff1615610f27576040805160e560020a62461bcd0281526020600482015260146024820152600080516020612b98833981519152604482015290519081900360640190fd5b6000610f33338361260c565b9050610f3f33826126d3565b5050565b600080610f4f8461272e565b9050801515610f62576000915050610bf7565b6000610f6d8561115a565b90506000600e5485111515610f8e5750601154600160a060020a0316610f9c565b50601254600160a060020a03165b600081600160a060020a031663e7f0edca876040518263ffffffff1660e060020a0281526004018082815260200191505060206040518083038186803b158015610fe557600080fd5b505afa158015610ff9573d6000803e3d6000fd5b505050506040513d602081101561100f57600080fd5b5051905061103383611027868463ffffffff61274916565b9063ffffffff61276d16565b979650505050505050565b60408051808201909152600781527f312e302e302e3000000000000000000000000000000000000000000000000000602082015281565b600954600160a060020a031681565b60045460ff1681565b80600160a060020a03811615156110dc576040805160e560020a62461bcd02815260206004820152600f6024820152600080516020612bd8833981519152604482015290519081900360640190fd5b60045460ff1615611125576040805160e560020a62461bcd0281526020600482015260146024820152600080516020612b98833981519152604482015290519081900360640190fd5b60006111308361272e565b9050600061113d84612784565b90506111498482612840565b611154848383612911565b50505050565b600160a060020a03811660009081526013602052604081205480151561118b57670de0b6b3a764000091505061118e565b90505b919050565b600061118b82612784565b600b805460408051602060026001851615610100026000190190941693909304601f810184900484028201840190925281815292918301828280156112245780601f106111f957610100808354040283529160200191611224565b820191906000526020600020905b81548152906001019060200180831161120757829003601f168201915b505050505081565b601254600160a060020a031681565b600154600160a060020a0316331461129d576040805160e560020a62461bcd02815260206004820152600e60248201527f4f6e6c79204e6577204f776e6572000000000000000000000000000000000000604482015290519081900360640190fd5b6000805460018054600160a060020a03808216600160a060020a03198086169190911780875592169092556040519282169391169183917f8be0079c531659141344cd1fd0a4f28419497f9722a3daafe3b4186f6b6457e091a350565b600854600090600160a060020a0316331461135f576040805160e560020a62461bcd02815260206004820152601c60248201527f4f6e6c792066726f6d206d6967726174696f6e20636f6e747261637400000000604482015290519081900360640190fd5b611369838361251d565b61137383836125b1565b600854604080518481529051600160a060020a03928316928616917fe502aa3e015149f4b76a0b2b5394e3100903c4af27c3ddc98385395d3f552526919081900360200190a350600192915050565b600054600160a060020a03163314611412576040805160e560020a62461bcd02815260206004820152600a6024820152600080516020612bb8833981519152604482015290519081900360640190fd5b60045460ff161561145b576040805160e560020a62461bcd0281526020600482015260146024820152600080516020612b98833981519152604482015290519081900360640190fd5b6004805460ff191660011790556040517f6985a02210a168e66602d3235cb6db0e70f92b3ba4d376a33c0f3d9434bff62590600090a1565b600e54606090421161153157600b805460408051602060026001851615610100026000190190941693909304601f810184900484028201840190925281815292918301828280156115255780601f106114fa57610100808354040283529160200191611525565b820191906000526020600020905b81548152906001019060200180831161150857829003601f168201915b50505050509050610c19565b600c805460408051602060026001851615610100026000190190941693909304601f810184900484028201840190925281815292918301828280156115255780601f106114fa57610100808354040283529160200191611525565b600854600160a060020a031681565b600054600160a060020a031681565b80600160a060020a03811615156115f9576040805160e560020a62461bcd02815260206004820152600f6024820152600080516020612bd8833981519152604482015290519081900360640190fd5b600954600160a060020a0316331461165b576040805160e560020a62461bcd02815260206004820152600d60248201527f4f6e6c79204f70657261746f7200000000000000000000000000000000000000604482015290519081900360640190fd5b604080517f70a0823100000000000000000000000000000000000000000000000000000000815230600482015290518491600160a060020a0383169163a9059cbb91869184916370a08231916024808301926020929190829003018186803b1580156116c657600080fd5b505afa1580156116da573d6000803e3d6000fd5b505050506040513d60208110156116f057600080fd5b50516040805160e060020a63ffffffff8616028152600160a060020a03909316600484015260248301919091525160448083019260209291908290030181600087803b15801561173f57600080fd5b505af1158015611753573d6000803e3d6000fd5b505050506040513d602081101561176957600080fd5b505050505050565b60045460ff16156117ba576040805160e560020a62461bcd0281526020600482015260146024820152600080516020612b98833981519152604482015290519081900360640190fd5b600754600160a060020a0316151561181c576040805160e560020a62461bcd02815260206004820152601560248201527f6e6f7420696e206d6967726174696f6e206d6f64650000000000000000000000604482015290519081900360640190fd5b600061182733611193565b905060008111611881576040805160e560020a62461bcd02815260206004820152600a60248201527f6e6f2062616c616e636500000000000000000000000000000000000000000000604482015290519081900360640190fd5b61188b338261260c565b905061189733826126d3565b600754604080517f7a3130e3000000000000000000000000000000000000000000000000000000008152336004820152602481018490529051600160a060020a0390921691637a3130e3916044808201926020929091908290030181600087803b15801561190457600080fd5b505af1158015611918573d6000803e3d6000fd5b505050506040513d602081101561192e57600080fd5b50511515600114611989576040805160e560020a62461bcd02815260206004820152601c60248201527f6d69677261746546726f6d206d7573742072657475726e207472756500000000604482015290519081900360640190fd5b600754604080518381529051600160a060020a039092169133917f638edf84937fb2534b47cac985ea84d6ea4f4076315b56ea1c784d26b87e2bcb919081900360200190a350565b670de0b6b3a764000081565b60408051808201909152600481527f5843484600000000000000000000000000000000000000000000000000000000602082015281565b60105481565b670de0b6b3a764000090565b60045460009060ff1615611a72576040805160e560020a62461bcd0281526020600482015260146024820152600080516020612b98833981519152604482015290519081900360640190fd5b610bf48383612963565b600c805460408051602060026001851615610100026000190190941693909304601f810184900484028201840190925281815292918301828280156112245780601f106111f957610100808354040283529160200191611224565b600d5481565b82600160a060020a0381161515611b2c576040805160e560020a62461bcd02815260206004820152600f6024820152600080516020612bd8833981519152604482015290519081900360640190fd5b600954600160a060020a03163314611b8e576040805160e560020a62461bcd02815260206004820152600d60248201527f4f6e6c79204f70657261746f7200000000000000000000000000000000000000604482015290519081900360640190fd5b600e54421015611b9d57600080fd5b6000831515611bad575042611bb0565b50825b601054811015611bbf57600080fd5b611bd2426283d60063ffffffff61297016565b811115611c29576040805160e560020a62461bcd02815260206004820152601e60248201527f73616e697479636865636b206f6e206e65774d61747572697479446174650000604482015290519081900360640190fd5b82811115611c81576040805160e560020a62461bcd02815260206004820152601e60248201527f7465726d206d757374207374617274206265666f726520697420656e64730000604482015290519081900360640190fd5b611c9542630107ac0063ffffffff61297016565b831115611cec576040805160e560020a62461bcd02815260206004820152601d60248201527f73616e697479636865636b206f6e206e65775465726d456e6444617465000000604482015290519081900360640190fd5b6000859050600081600160a060020a031663e7f0edca846040518263ffffffff1660e060020a0281526004018082815260200191505060206040518083038186803b158015611d3a57600080fd5b505afa158015611d4e573d6000803e3d6000fd5b505050506040513d6020811015611d6457600080fd5b5051601254604080517fe7f0edca000000000000000000000000000000000000000000000000000000008152600481018790529051929350600092600160a060020a039092169163e7f0edca91602480820192602092909190829003018186803b158015611dd157600080fd5b505afa158015611de5573d6000803e3d6000fd5b505050506040513d6020811015611dfb57600080fd5b50519050818114611e7c576040805160e560020a62461bcd02815260206004820152603860248201527f6e657720696e697469616c436f6d706f756e64696e674c6576656c203c3e206f60448201527f6c642066696e616c436f6d706f756e64696e674c6576656c0000000000000000606482015290519081900360840190fd5b60125460118054600160a060020a031916600160a060020a03909216919091179055600c8054611ec191600b9160026000196001831615610100020190911604612a8a565b50600e54600d55601054600f5560128054600160a060020a031916600160a060020a0385161790558851611efc90600c9060208c0190612b0f565b5083600e8190555085601081905550858489600160a060020a03167f4f70dd95fafd6940868ef95f73e10b7250c9619c8b4df1760d274699917542418c6040518080602001828103825283818151815260200191508051906020019080838360005b83811015611f76578181015183820152602001611f5e565b50505050905090810190601f168015611fa35780820380516001836020036101000a031916815260200191505b509250505060405180910390a4505050505050505050565b600154600160a060020a031681565b600054600160a060020a0316331461201a576040805160e560020a62461bcd02815260206004820152600a6024820152600080516020612bb8833981519152604482015290519081900360640190fd5b60088054600160a060020a031916600160a060020a038381169190911791829055604080517fdf4bcf580000000000000000000000000000000000000000000000000000000081529051929091169163df4bcf5891600480820192602092909190829003018186803b15801561208f57600080fd5b505afa1580156120a3573d6000803e3d6000fd5b505050506040513d60208110156120b957600080fd5b50511515612111576040805160e560020a62461bcd02815260206004820152601960248201527f6e6f742061206d696772617461626c6520636f6e747261637400000000000000604482015290519081900360640190fd5b6040513090600160a060020a038316907fafb3eb79b985ae31830cb04dfc82c2d58e1b1c9851b6f7d8bf0c8311fbcaf02090600090a350565b601154600160a060020a031681565b600160a060020a03918216600090815260036020908152604080832093909416825291909152205490565b600190565b600e5481565b50670de0b6b3a764000090565b600754600160a060020a031681565b80600160a060020a03811615156121fa576040805160e560020a62461bcd02815260206004820152600f6024820152600080516020612bd8833981519152604482015290519081900360640190fd5b600054600160a060020a0316331461224a576040805160e560020a62461bcd02815260206004820152600a6024820152600080516020612bb8833981519152604482015290519081900360640190fd5b5060018054600160a060020a031916600160a060020a0392909216919091179055565b80600160a060020a03811615156122bc576040805160e560020a62461bcd02815260206004820152600f6024820152600080516020612bd8833981519152604482015290519081900360640190fd5b600054600160a060020a0316331461230c576040805160e560020a62461bcd02815260206004820152600a6024820152600080516020612bb8833981519152604482015290519081900360640190fd5b60048054600160a060020a0384811661010081810274ffffffffffffffffffffffffffffffffffffffff001985161790945560405193909204169182907f26799a531ff016a3eb21bcc827a4459bf024d10c0220ea263eb69d795d50ab7590600090a3505050565b600082600160a060020a03811615156123c5576040805160e560020a62461bcd02815260206004820152600f6024820152600080516020612bd8833981519152604482015290519081900360640190fd5b336000818152600360209081526040808320600160a060020a03891680855290835292819020879055805187815290519293927f8c5be1e5ebec7d5bd14f71427d1e84f3dd0314c0f7b2291e5b200ac8c7c3b925929181900390910190a35060019392505050565b60008282111561243957fe5b50900390565b600160a060020a03831660009081526003602090815260408083203384529091528120548211156124ba576040805160e560020a62461bcd02815260206004820152601360248201527f696e73756666696369656e7420746f6b656e7300000000000000000000000000604482015290519081900360640190fd5b600160a060020a03841660009081526003602090815260408083203384529091529020546124ee908363ffffffff61242d16565b600160a060020a0385166000908152600360209081526040808320338452909152902055610c7984848461297f565b81600160a060020a038116151561256c576040805160e560020a62461bcd02815260206004820152600f6024820152600080516020612bd8833981519152604482015290519081900360640190fd5b60006125778461272e565b9050600061258485612784565b905061259f8561259a838763ffffffff61297016565b612840565b6125aa858383612911565b5050505050565b6005546125c4908263ffffffff61297016565b600555604080518281529051600160a060020a038416916000917fddf252ad1be2c89b69c2b068fc378daa952ba7f163c4a11628f55a4df523b3ef9181900360200190a35050565b600082600160a060020a038116151561265d576040805160e560020a62461bcd02815260206004820152600f6024820152600080516020612bd8833981519152604482015290519081900360640190fd5b60006126688561272e565b9050600061267586612784565b90506000612689828763ffffffff61242d16565b600a5490915081116126b0576126a5868263ffffffff61297016565b9450600090506126b4565b8594505b6126be8782612840565b6126c9878484612911565b5050505092915050565b6006546126e6908263ffffffff61297016565b600655604080518281529051600091600160a060020a038516917fddf252ad1be2c89b69c2b068fc378daa952ba7f163c4a11628f55a4df523b3ef9181900360200190a35050565b600160a060020a031660009081526002602052604090205490565b6000828202831580612765575082848281151561276257fe5b04145b1515610bf457fe5b600080828481151561277b57fe5b04949350505050565b6000806127908361272e565b90508015156127a357600091505061118e565b60006127ae8461115a565b905060006127ba6129ee565b600160a060020a031663a1d1fe5d6040518163ffffffff1660e060020a02815260040160206040518083038186803b1580156127f557600080fd5b505afa158015612809573d6000803e3d6000fd5b505050506040513d602081101561281f57600080fd5b5051905061283782611027858463ffffffff61274916565b95945050505050565b61284a8282612a1e565b80151561286f57600160a060020a038216600090815260136020526040812055610f3f565b60006128796129ee565b600160a060020a031663a1d1fe5d6040518163ffffffff1660e060020a02815260040160206040518083038186803b1580156128b457600080fd5b505afa1580156128c8573d6000803e3d6000fd5b505050506040513d60208110156128de57600080fd5b505190506128eb8361115a565b8114610ed957600160a060020a0383166000908152601360205260409020819055505050565b8082111561293d57600061292b838363ffffffff61242d16565b905061293784826126d3565b50610ed9565b80821015610ed9576000612957828463ffffffff61242d16565b905061115484826125b1565b6000610bf433848461297f565b600082820183811015610bf457fe5b60008061298c858461260c565b9050612998848261251d565b83600160a060020a031685600160a060020a03167fddf252ad1be2c89b69c2b068fc378daa952ba7f163c4a11628f55a4df523b3ef836040518082815260200191505060405180910390a3506001949350505050565b600e546000904211612a0c5750601154600160a060020a0316610c19565b50601254600160a060020a0316610c19565b81600160a060020a0381161515612a6d576040805160e560020a62461bcd02815260206004820152600f6024820152600080516020612bd8833981519152604482015290519081900360640190fd5b50600160a060020a03909116600090815260026020526040902055565b828054600181600116156101000203166002900490600052602060002090601f016020900481019282601f10612ac35780548555612aff565b82800160010185558215612aff57600052602060002091601f016020900482015b82811115612aff578254825591600101919060010190612ae4565b50612b0b929150612b7d565b5090565b828054600181600116156101000203166002900490600052602060002090601f016020900481019282601f10612b5057805160ff1916838001178555612aff565b82800160010185558215612aff579182015b82811115612aff578251825591602001919060010190612b62565b610c1991905b80821115612b0b5760008155600101612b8356fe6f6e6c79207768656e206e6f74207061757365640000000000000000000000004f6e6c79204f776e65720000000000000000000000000000000000000000000061646472657373206973204e756c6c0000000000000000000000000000000000a165627a7a72305820e551889bf334b4ed2a23dbdd4f5d200783624129971728e6e8ae60949ce3242f0029",
  "source": "pragma solidity ^0.5.0;\nimport \"./MintableToken.sol\";\nimport \"./MigrationAgent.sol\";\nimport \"./Operator.sol\";\nimport \"./InterestRateNone.sol\";\n\ncontract CryptoFranc is MintableToken, MigrationAgent, Operator, InterestRateNone {\n\n    using SafeMath for uint256;\n\n    string constant public name = \"CryptoFranc\";\n    string constant public symbol = \"XCHF\";\n    uint256 constant public decimals = 18;\n    string constant public version = \"1.0.0.0\";\n    uint256 public dustAmount;\n\n    // Changes as the token is converted to the next vintage\n    string public currentFullName;\n    string public announcedFullName;\n    uint256 public currentMaturityDate;\n    uint256 public announcedMaturityDate;\n    uint256 public currentTermEndDate;\n    uint256 public announcedTermEndDate;\n    InterestRateInterface public currentTerms;\n    InterestRateInterface public announcedTerms;\n\n    mapping(address => uint256) internal compoundedInterestFactor;\n\n    // CONSTRUCTORS\n\n    constructor(string memory _initialFullName, uint256 _dustAmount) public {\n        // initially, there is no interest. This contract has an interest-free default implementation\n        // of the InterestRateInterface. Having this internalized saves gas in comparison to having an\n        // external, separate smart contract.\n        currentFullName = _initialFullName;\n        announcedFullName = _initialFullName;\n        dustAmount = _dustAmount;    \n        currentTerms = this;\n        announcedTerms = this;\n        announcedMaturityDate = block.timestamp;\n        announcedTermEndDate = block.timestamp;\n    }\n\n    // EXTERNAL FUNCTIONS\n\n    // PUBLIC FUNCTIONS\n\n    /// @dev Invoked by the issuer to convert all the outstanding tokens into bonds of the latest vintage.\n    /// @param _newName Name of announced bond\n    /// @param _newTerms Address of announced bond\n    /// @param _newMaturityDate Maturity Date of announced bond\n    /// @param _newTermEndDate End Date of announced bond\n    function announceRollover(string memory _newName, address _newTerms, uint256 _newMaturityDate, uint256 _newTermEndDate) public notNull(_newTerms) onlyOperator {\n        // a new term can not be announced before the current is expired\n        require(block.timestamp >= announcedMaturityDate);\n\n        // for test purposes\n        uint256 newMaturityDate;\n        if (_newMaturityDate == 0)\n            newMaturityDate = block.timestamp;\n        else\n            newMaturityDate = _newMaturityDate;\n\n        // new newMaturityDate must be at least or greater than the existing announced terms end date\n        require(newMaturityDate >= announcedTermEndDate);\n\n        //require new term dates not too far in the future\n        //this is to prevent severe operator time calculaton errors\n        require(newMaturityDate <= block.timestamp.add(100 days),\"sanitycheck on newMaturityDate\");\n        require(newMaturityDate <= _newTermEndDate,\"term must start before it ends\");\n        require(_newTermEndDate <= block.timestamp.add(200 days),\"sanitycheck on newTermEndDate\");\n\n        InterestRateInterface terms = InterestRateInterface(_newTerms);\n        \n        // ensure that _newTerms begins at the compoundLevel that the announcedTerms ends\n        // they must align\n        uint256 newBeginLevel = terms.getCompoundingLevelDate(newMaturityDate);\n        uint256 annEndLevel = announcedTerms.getCompoundingLevelDate(newMaturityDate);\n        require(annEndLevel == newBeginLevel,\"new initialCompoundingLevel <> old finalCompoundingLevel\");\n\n        //rollover\n        currentTerms = announcedTerms;\n        currentFullName = announcedFullName;\n        currentMaturityDate = announcedMaturityDate;\n        currentTermEndDate = announcedTermEndDate;\n        announcedTerms = terms;\n        announcedFullName = _newName;\n        announcedMaturityDate = newMaturityDate;\n        announcedTermEndDate = _newTermEndDate;\n\n        emit AnnounceRollover(_newName, _newTerms, newMaturityDate, _newTermEndDate);\n    }\n\n    /// @dev collectInterest is called to update the internal state of `_owner` balance and force a interest payment\n    /// This function does not change the effective amount of the `_owner` as returned by balanceOf\n    /// and thus, can be called by anyone willing to pay for the gas.\n    /// The designed usage for this function is to allow the CryptoFranc owner to collect interest from inactive accounts, \n    /// since interest collection is updated automatically in normal transfers\n    /// calling collectInterest is functional equivalent to transfer 0 tokens to `_owner`\n    /// @param _owner The account being updated\n    function collectInterest( address _owner) public notNull(_owner) whenNotPaused {\n        uint256 rawBalance = super.balanceOf(_owner);\n        uint256 adjustedBalance = getAdjustedValue(_owner);\n        setBalance(_owner, adjustedBalance);\n        checkMintOrBurn(_owner, rawBalance, adjustedBalance);\n    }\n\n    /*\n        MIGRATE FUNCTIONS\n     */\n    // safe migrate function\n    /// @dev migrageFrom is called from the migrating contract `migrationFromContract`\n    /// @param _from The account to be migrated into new contract\n    /// @param _value The token balance to be migrated\n    function migrateFrom(address _from, uint256 _value) public onlyMigrationFromContract returns(bool) {\n        addTokens(_from, _value);\n        notifyMinted(_from, _value);\n\n        emit MigratedFrom(_from, migrationFromContract, _value);\n        return true;\n    }\n\n    /// @dev Each user calls the migrate function on the original contract to migrate the users tokens to the migration agent migrateFrom on the `migrationToContract` contract\n    function migrate() public whenNotPaused {\n        require(migrationToContract != 0x0000000000000000000000000000000000000000, \"not in migration mode\"); // revert if not in migrate mode\n        uint256 value = balanceOf(msg.sender);\n        require (value > 0, \"no balance\"); // revert if not value left to transfer\n        value = subTokens(msg.sender, value);\n        notifyBurned(msg.sender, value);\n        require(MigrationAgent(migrationToContract).migrateFrom(msg.sender, value)==true, \"migrateFrom must return true\");\n\n        emit MigratedTo(msg.sender, migrationToContract, value);\n    }\n\n    /*\n        Helper FUNCTIONS\n    */\n\n    /// @dev helper function to return foreign tokens accidental send to contract address\n    /// @param _tokenaddress Address of foreign ERC20 contract\n    /// @param _to Address to send foreign tokens to\n    function refundForeignTokens(address _tokenaddress,address _to) public notNull(_to) onlyOperator {\n        ERC20Interface token = ERC20Interface(_tokenaddress);\n        // transfer current balance for this contract to _to  in token contract\n        token.transfer(_to, token.balanceOf(address(this)));\n    }\n\n    /// @dev get fullname of active interest contract\n    function getFullName() public view returns (string memory) {\n        if ((block.timestamp <= announcedMaturityDate))\n            return currentFullName;\n        else\n            return announcedFullName;\n    }\n\n    /// @dev get compounding level of an owner account\n    /// @param _owner tokens address\n    /// @return The compouding level\n    function getCompoundingLevel(address _owner) public view returns (uint256) {\n        uint256 level = compoundedInterestFactor[_owner];\n        if (level == 0) {\n            // important note that for InterestRateNone or empty accounts the compoundedInterestFactor is newer stored by setBalance\n            return SCALEFACTOR;\n        } else {\n            return level;\n        }\n    }\n\n    /// @param _owner The address from which the balance will be retrieved\n    /// @return The balance\n    function balanceOf(address _owner) public view returns (uint256) {\n        return getAdjustedValue(_owner);\n    }\n\n    // INTERNAL FUNCTIONS\n\n    /// @notice add tokens `_value` tokens to `owner`\n    /// @param _owner The address of the account\n    /// @param _value The amount of tokens to be added\n    function addTokens(address _owner,uint256 _value) notNull(_owner) internal {\n        uint256 rawBalance = super.balanceOf(_owner);\n        uint256 adjustedBalance = getAdjustedValue(_owner);\n        setBalance(_owner, adjustedBalance.add(_value));\n        checkMintOrBurn(_owner, rawBalance, adjustedBalance);\n    }\n\n    /// @notice subtract tokens `_value` tokens from `owner`\n    /// @param _owner The address of the account\n    /// @param _value The amount of tokens to be subtracted\n    function subTokens(address _owner, uint256 _value) internal notNull(_owner) returns (uint256 _valueDeducted ) {\n        uint256 rawBalance = super.balanceOf(_owner);\n        uint256 adjustedBalance = getAdjustedValue(_owner);\n        uint256 newBalance = adjustedBalance.sub(_value);\n        if (newBalance <= dustAmount) {\n            // dont leave balance below dust, empty account\n            _valueDeducted = _value.add(newBalance);\n            newBalance =  0;\n        } else {\n            _valueDeducted = _value;\n        }\n        setBalance(_owner, newBalance);\n        checkMintOrBurn(_owner, rawBalance, adjustedBalance);\n    }\n\n    /// @notice set balance of account `owner` to `_value`\n    /// @param _owner The address of the account\n    /// @param _value The new balance \n    function setBalance(address _owner, uint256 _value) internal {\n        super.setBalance(_owner, _value);\n        // update `owner`s compoundLevel\n        if (_value == 0) {\n            // stall account release storage\n            delete compoundedInterestFactor[_owner];\n        } else {\n            // only update compoundedInterestFactor when value has changed \n            // important note: for InterestRateNone the compoundedInterestFactor is newer stored because the default value for getCompoundingLevel is SCALEFACTOR\n            uint256 currentLevel = getInterestRate().getCurrentCompoundingLevel();\n            if (currentLevel != getCompoundingLevel(_owner)) {\n                compoundedInterestFactor[_owner] = currentLevel;\n            }\n        }\n    }\n\n    /// @dev get address of active bond\n    function getInterestRate() internal view returns (InterestRateInterface) {\n        if ((block.timestamp <= announcedMaturityDate))\n            return currentTerms;\n        else\n            return announcedTerms;\n    }\n\n    /// @notice get adjusted balance of account `owner`\n    /// @param _owner The address of the account\n    function getAdjustedValue(address _owner) internal view returns (uint256) {\n        uint256 _rawBalance = super.balanceOf(_owner);\n        // if _rawBalance is 0 dont perform calculations\n        if (_rawBalance == 0)\n            return 0;\n        // important note: for empty/new account the getCompoundingLevel value is not meaningfull\n        uint256 startLevel = getCompoundingLevel(_owner);\n        uint256 currentLevel = getInterestRate().getCurrentCompoundingLevel();\n        return _rawBalance.mul(currentLevel).div(startLevel);\n    }\n\n    /// @notice get adjusted balance of account `owner` at data `date`\n    /// @param _owner The address of the account\n    /// @param _date The date of the balance NB: MUST be within valid current and announced Terms date range\n    function getAdjustedValueDate(address _owner,uint256 _date) public view returns (uint256) {\n        uint256 _rawBalance = super.balanceOf(_owner);\n        // if _rawBalance is 0 dont perform calculations\n        if (_rawBalance == 0)\n            return 0;\n        // important note: for empty/new account the getCompoundingLevel value is not meaningfull\n        uint256 startLevel = getCompoundingLevel(_owner);\n\n        InterestRateInterface dateTerms;\n        if (_date <= announcedMaturityDate)\n            dateTerms = currentTerms;\n        else\n            dateTerms = announcedTerms;\n\n        uint256 dateLevel = dateTerms.getCompoundingLevelDate(_date);\n        return _rawBalance.mul(dateLevel).div(startLevel);\n    }\n\n    // PRIVATE FUNCTIONS\n\n    // EVENTS\n\n    event AnnounceRollover(string newName, address indexed newTerms, uint256 indexed newMaturityDate, uint256 indexed newTermEndDate);\n}",
  "sourcePath": "/home/benjamin/Documents/GitHub/ShareDispenserTwoSided/Solidity/contracts/XCHF/CryptoFranc.sol",
  "compiler": {
    "name": "solc",
    "version": "0.5.0+commit.1d4f565a.Emscripten.clang"
  },
  "schemaVersion": "3.0.9",
  "updatedAt": "2019-06-13T11:58:51.078Z",
  "devdoc": {
    "methods": {
      "acceptOwnership()": {
        "details": "Allow the new owner to claim ownership and so proving that the newOwner is valid."
      },
      "allowance(address,address)": {
        "params": {
          "_owner": "The address of the account owning tokens",
          "_spender": "The address of the account able to transfer the tokens"
        },
        "return": "Amount of remaining tokens allowed to spent"
      },
      "announceRollover(string,address,uint256,uint256)": {
        "details": "Invoked by the issuer to convert all the outstanding tokens into bonds of the latest vintage.",
        "params": {
          "_newMaturityDate": "Maturity Date of announced bond",
          "_newName": "Name of announced bond",
          "_newTermEndDate": "End Date of announced bond",
          "_newTerms": "Address of announced bond"
        }
      },
      "approve(address,uint256)": {
        "params": {
          "_spender": "The address of the account able to transfer the tokens",
          "_value": "The amount of tokens to be approved for transfer"
        },
        "return": "Whether the approval was successful or not"
      },
      "balanceOf(address)": {
        "params": {
          "_owner": "The address from which the balance will be retrieved"
        },
        "return": "The balance"
      },
      "burn(uint256)": {
        "details": "burn tokens, e.g. when migrating",
        "params": {
          "_value": "The amount of token to be burned from the callers account"
        }
      },
      "collectInterest(address)": {
        "details": "collectInterest is called to update the internal state of `_owner` balance and force a interest payment This function does not change the effective amount of the `_owner` as returned by balanceOf and thus, can be called by anyone willing to pay for the gas. The designed usage for this function is to allow the CryptoFranc owner to collect interest from inactive accounts,  since interest collection is updated automatically in normal transfers calling collectInterest is functional equivalent to transfer 0 tokens to `_owner`",
        "params": {
          "_owner": "The account being updated"
        }
      },
      "getAdjustedValueDate(address,uint256)": {
        "params": {
          "_date": "The date of the balance NB: MUST be within valid current and announced Terms date range",
          "_owner": "The address of the account"
        }
      },
      "getCompoundingLevel(address)": {
        "details": "get compounding level of an owner account",
        "params": {
          "_owner": "tokens address"
        },
        "return": "The compouding level"
      },
      "getFullName()": {
        "details": "get fullname of active interest contract"
      },
      "isMigrationAgent()": {
        "details": "is a valid migration agent",
        "return": "true if contract is a migratable contract"
      },
      "migrate()": {
        "details": "Each user calls the migrate function on the original contract to migrate the users tokens to the migration agent migrateFrom on the `migrationToContract` contract"
      },
      "migrateFrom(address,uint256)": {
        "details": "migrageFrom is called from the migrating contract `migrationFromContract`",
        "params": {
          "_from": "The account to be migrated into new contract",
          "_value": "The token balance to be migrated"
        }
      },
      "mint(address,uint256)": {
        "details": "mint tokens to address",
        "params": {
          "_to": "The address of the recipient",
          "_value": "The amount of token to be minted"
        }
      },
      "pause()": {
        "details": "called by the owner to pause, triggers stopped state"
      },
      "refundForeignTokens(address,address)": {
        "details": "helper function to return foreign tokens accidental send to contract address",
        "params": {
          "_to": "Address to send foreign tokens to",
          "_tokenaddress": "Address of foreign ERC20 contract"
        }
      },
      "startMigrateFromContract(address)": {
        "details": "set contract to migrate from",
        "params": {
          "_fromConstract": "Then contract address to migrate from"
        }
      },
      "startMigrateToContract(address)": {
        "details": "set contract to migrate to ",
        "params": {
          "_toContract": "Then contract address to migrate to"
        }
      },
      "totalSupply()": {
        "details": "return total amount of tokens"
      },
      "transfer(address,uint256)": {
        "params": {
          "_to": "The address of the recipient",
          "_value": "The amount of token to be transferred"
        },
        "return": "Whether the transfer was successful or not"
      },
      "transferFrom(address,address,uint256)": {
        "params": {
          "_from": "The address of the sender",
          "_to": "The address of the recipient",
          "_value": "The amount of token to be transferred"
        },
        "return": "Whether the transfer was successful or not"
      },
      "transferMinter(address)": {
        "details": "transfer minter to new address",
        "params": {
          "_newMinter": "The address of the recipient"
        }
      },
      "transferOperator(address)": {
        "details": "Transfer operator to `newOperator`.",
        "params": {
          "_newOperator": "The address of the new operator"
        },
        "return": "balance Balance of the `_owner`."
      },
      "transferOwnership(address)": {
        "details": "Allows the current owner to transfer control of the contract to a newOwner.",
        "params": {
          "_newOwner": "The address to transfer ownership to."
        }
      },
      "unpause()": {
        "details": "called by the owner to unpause, returns to normal state"
      }
    }
  },
  "userdoc": {
    "methods": {
      "approve(address,uint256)": {
        "notice": "`msg.sender` approves `_spender` to spend `_value` tokens"
      },
      "burn(uint256)": {
        "notice": "burn `_value` token to `_to`"
      },
      "getAdjustedValueDate(address,uint256)": {
        "notice": "get adjusted balance of account `owner` at data `date`"
      },
      "getCompoundingLevelDate(uint256)": {
        "notice": "get compounding level for day `_date` param _date The daynumber "
      },
      "getCurrentCompoundingLevel()": {
        "notice": "get compounding level for currenct day"
      },
      "mint(address,uint256)": {
        "notice": "mint `_value` token to `_to`"
      },
      "transfer(address,uint256)": {
        "notice": "send `_value` token to `_to` from `msg.sender`"
      },
      "transferFrom(address,address,uint256)": {
        "notice": "send `_value` token to `_to` from `_from` on the condition it is approved by `_from`"
      },
      "transferMinter(address)": {
        "notice": "transfer minter addres from  `minter` to `_newMinter`"
      }
    }
  }
}